{
	"data": {
		"bytecode": {
			"linkReferences": {},
			"object": "60c06040523480156200001157600080fd5b50604051620028ef380380620028ef833981810160405281019062000037919062000146565b807f468721a7a101c0ac91d27acce9b8b69c104c9d5c990c53e0375b98d5668d392d8173ffffffffffffffffffffffffffffffffffffffff1660808173ffffffffffffffffffffffffffffffffffffffff1681525050807bffffffffffffffffffffffffffffffffffffffffffffffffffffffff191660a0817bffffffffffffffffffffffffffffffffffffffffffffffffffffffff19168152505050505062000178565b600080fd5b600073ffffffffffffffffffffffffffffffffffffffff82169050919050565b60006200010e82620000e1565b9050919050565b620001208162000101565b81146200012c57600080fd5b50565b600081519050620001408162000115565b92915050565b6000602082840312156200015f576200015e620000dc565b5b60006200016f848285016200012f565b91505092915050565b60805160a05161274a620001a5600039600061058e0152600081816109ca0152610e2c015261274a6000f3fe608060405234801561001057600080fd5b50600436106101205760003560e01c80636ac24784116100ad578063c9a363cb11610071578063c9a363cb1461037b578063e6fb794d146103ab578063f23a6e61146103c9578063f698da25146103f9578063ffa1ad741461041757610120565b80636ac24784146102af578063a3f4df7e146102df578063b2494df3146102fd578063bc197c811461031b578063bd61951d1461034b57610120565b8063150b7a02116100f4578063150b7a02146101bf5780631626ba7e146101ef57806320c13b0b1461021f5780633a871cdd1461024f5780634218ef201461027f57610120565b806223de291461012557806301ffc9a7146101415780630a1028c4146101715780630d9e6a36146101a1575b600080fd5b61013f600480360381019061013a919061116c565b610435565b005b61015b60048036038101906101569190611293565b61043f565b60405161016891906112db565b60405180910390f35b61018b60048036038101906101869190611437565b610579565b6040516101989190611499565b60405180910390f35b6101a961058c565b6040516101b691906114c3565b60405180910390f35b6101d960048036038101906101d491906114de565b6105b0565b6040516101e691906114c3565b60405180910390f35b61020960048036038101906102049190611592565b6105c5565b60405161021691906114c3565b60405180910390f35b610239600480360381019061023491906115f2565b6106d6565b60405161024691906114c3565b60405180910390f35b6102696004803603810190610264919061168f565b610834565b604051610276919061170d565b60405180910390f35b61029960048036038101906102949190611293565b610af8565b6040516102a691906112db565b60405180910390f35b6102c960048036038101906102c49190611766565b610b18565b6040516102d69190611499565b60405180910390f35b6102e7610c1c565b6040516102f49190611841565b60405180910390f35b610305610c55565b6040516103129190611921565b60405180910390f35b61033560048036038101906103309190611999565b610cec565b60405161034291906114c3565b60405180910390f35b61036560048036038101906103609190611a75565b610d04565b6040516103729190611b2a565b60405180910390f35b61039560048036038101906103909190611b4c565b610d6e565b6040516103a29190611b2a565b60405180910390f35b6103b3610e2a565b6040516103c09190611c46565b60405180910390f35b6103e360048036038101906103de9190611c61565b610e4e565b6040516103f091906114c3565b60405180910390f35b610401610e64565b60405161040e9190611499565b60405180910390f35b61041f610eb6565b60405161042c9190611841565b60405180910390f35b5050505050505050565b60007f4e2312e0000000000000000000000000000000000000000000000000000000007bffffffffffffffffffffffffffffffffffffffffffffffffffffffff1916827bffffffffffffffffffffffffffffffffffffffffffffffffffffffff1916148061050a57507f150b7a02000000000000000000000000000000000000000000000000000000007bffffffffffffffffffffffffffffffffffffffffffffffffffffffff1916827bffffffffffffffffffffffffffffffffffffffffffffffffffffffff1916145b8061057257507f01ffc9a7000000000000000000000000000000000000000000000000000000007bffffffffffffffffffffffffffffffffffffffffffffffffffffffff1916827bffffffffffffffffffffffffffffffffffffffffffffffffffffffff1916145b9050919050565b60006105853383610b18565b9050919050565b7f000000000000000000000000000000000000000000000000000000000000000081565b600063150b7a0260e01b905095945050505050565b60008033905060008173ffffffffffffffffffffffffffffffffffffffff166320c13b0b876040516020016105fa9190611499565b60405160208183030381529060405287876040518463ffffffff1660e01b815260040161062993929190611d28565b602060405180830381865afa158015610646573d6000803e3d6000fd5b505050506040513d601f19601f8201168201806040525081019061066a9190611d76565b90506320c13b0b60e01b7bffffffffffffffffffffffffffffffffffffffffffffffffffffffff1916817bffffffffffffffffffffffffffffffffffffffffffffffffffffffff1916146106c257600060e01b6106cb565b631626ba7e60e01b5b925050509392505050565b60008033905060006106e88286610b18565b905060008451036107b45760008273ffffffffffffffffffffffffffffffffffffffff16635ae6bd37836040518263ffffffff1660e01b815260040161072e9190611499565b602060405180830381865afa15801561074b573d6000803e3d6000fd5b505050506040513d601f19601f8201168201806040525081019061076f9190611db8565b036107af576040517f08c379a00000000000000000000000000000000000000000000000000000000081526004016107a690611e31565b60405180910390fd5b610822565b8173ffffffffffffffffffffffffffffffffffffffff1663934f3a118287876040518463ffffffff1660e01b81526004016107f193929190611e51565b60006040518083038186803b15801561080957600080fd5b505afa15801561081d573d6000803e3d6000fd5b505050505b6320c13b0b60e01b9250505092915050565b60008084600001602081019061084a9190611e96565b90503373ffffffffffffffffffffffffffffffffffffffff168173ffffffffffffffffffffffffffffffffffffffff16146108ba576040517f08c379a00000000000000000000000000000000000000000000000000000000081526004016108b190611f0f565b60405180910390fd5b6000808680606001906108cd9190611f3e565b906108d89190611fb9565b7bffffffffffffffffffffffffffffffffffffffffffffffffffffffff19167bffffffffffffffffffffffffffffffffffffffffffffffffffffffff1916815260200190815260200160002060009054906101000a900460ff16610971576040517f08c379a00000000000000000000000000000000000000000000000000000000081526004016109689061208a565b60405180910390fd5b61097a85610eef565b8311156109bc576040517f08c379a00000000000000000000000000000000000000000000000000000000081526004016109b3906120f6565b60405180910390fd5b60006109c6610f07565b90507f000000000000000000000000000000000000000000000000000000000000000073ffffffffffffffffffffffffffffffffffffffff168173ffffffffffffffffffffffffffffffffffffffff1614610a56576040517f08c379a0000000000000000000000000000000000000000000000000000000008152600401610a4d90612162565b60405180910390fd5b610a608187610f16565b60008414610aeb578173ffffffffffffffffffffffffffffffffffffffff1663468721a7828660006040518463ffffffff1660e01b8152600401610aa6939291906121fa565b6020604051808303816000875af1158015610ac5573d6000803e3d6000fd5b505050506040513d601f19601f82011682018060405250810190610ae99190612270565b505b6000925050509392505050565b60006020528060005260406000206000915054906101000a900460ff1681565b6000807f60b3cbf8b4a223d68d641b3b6ddf9a298e7f33710cf3d3a9d1146b5a6150fbca60001b8380519060200120604051602001610b5892919061229d565b604051602081830303815290604052805190602001209050601960f81b600160f81b8573ffffffffffffffffffffffffffffffffffffffff1663f698da256040518163ffffffff1660e01b8152600401602060405180830381865afa158015610bc5573d6000803e3d6000fd5b505050506040513d601f19601f82011682018060405250810190610be991906122db565b83604051602001610bfd9493929190612376565b6040516020818303038152906040528051906020012091505092915050565b6040518060400160405280601881526020017f44656661756c742043616c6c6261636b2048616e646c6572000000000000000081525081565b6060600033905060008173ffffffffffffffffffffffffffffffffffffffff1663cc2f84526001600a6040518363ffffffff1660e01b8152600401610c9b9291906123ff565b600060405180830381865afa158015610cb8573d6000803e3d6000fd5b505050506040513d6000823e3d601f19601f82011682018060405250810190610ce19190612500565b509050809250505090565b600063bc197c8160e01b905098975050505050505050565b60606040517fb4faba09000000000000000000000000000000000000000000000000000000008152600436036004808301376020600036836000335af15060203d036040519250808301604052806020843e600051610d6557825160208401fd5b50509392505050565b606060007ff46565707a2af267352d188e6019a8cb627fd2502c4c9eb44a71577e5aa0c7838c8c8c604051610da492919061258c565b60405180910390208b8b8b8b8b8b8b604051602001610dcc9a999897969594939291906125a5565b604051602081830303815290604052805190602001209050601960f81b600160f81b610df6610e64565b83604051602001610e0a9493929190612376565b6040516020818303038152906040529150509a9950505050505050505050565b7f000000000000000000000000000000000000000000000000000000000000000081565b600063f23a6e6160e01b90509695505050505050565b60007f47e79534a245952e8b16893a336b85a3d9ea9fa8c573f3d803afb92a794692184630604051602001610e9b93929190612696565b60405160208183030381529060405280519060200120905090565b6040518060400160405280600581526020017f312e302e3000000000000000000000000000000000000000000000000000000081525081565b60008160e00135610eff83611007565b029050919050565b6000601436033560601c905090565b6000610f63826000016020810190610f2e9190611e96565b838060600190610f3e9190611f3e565b85602001358660a001358760c001358860e001358961010001358a608001358c610d6e565b9050600081805190602001209050826000016020810190610f849190611e96565b73ffffffffffffffffffffffffffffffffffffffff1663934f3a11828486806101400190610fb29190611f3e565b6040518563ffffffff1660e01b8152600401610fd194939291906126cd565b60006040518083038186803b158015610fe957600080fd5b505afa158015610ffd573d6000803e3d6000fd5b5050505050505050565b60008061101383611041565b61101e576001611021565b60035b60ff1690508260c00135818460a001350284608001350101915050919050565b600080828061012001906110559190611f3e565b9050119050919050565b6000604051905090565b600080fd5b600080fd5b600073ffffffffffffffffffffffffffffffffffffffff82169050919050565b600061109e82611073565b9050919050565b6110ae81611093565b81146110b957600080fd5b50565b6000813590506110cb816110a5565b92915050565b6000819050919050565b6110e4816110d1565b81146110ef57600080fd5b50565b600081359050611101816110db565b92915050565b600080fd5b600080fd5b600080fd5b60008083601f84011261112c5761112b611107565b5b8235905067ffffffffffffffff8111156111495761114861110c565b5b60208301915083600182028301111561116557611164611111565b5b9250929050565b60008060008060008060008060c0898b03121561118c5761118b611069565b5b600061119a8b828c016110bc565b98505060206111ab8b828c016110bc565b97505060406111bc8b828c016110bc565b96505060606111cd8b828c016110f2565b955050608089013567ffffffffffffffff8111156111ee576111ed61106e565b5b6111fa8b828c01611116565b945094505060a089013567ffffffffffffffff81111561121d5761121c61106e565b5b6112298b828c01611116565b92509250509295985092959890939650565b60007fffffffff0000000000000000000000000000000000000000000000000000000082169050919050565b6112708161123b565b811461127b57600080fd5b50565b60008135905061128d81611267565b92915050565b6000602082840312156112a9576112a8611069565b5b60006112b78482850161127e565b91505092915050565b60008115159050919050565b6112d5816112c0565b82525050565b60006020820190506112f060008301846112cc565b92915050565b600080fd5b6000601f19601f8301169050919050565b7f4e487b7100000000000000000000000000000000000000000000000000000000600052604160045260246000fd5b611344826112fb565b810181811067ffffffffffffffff821117156113635761136261130c565b5b80604052505050565b600061137661105f565b9050611382828261133b565b919050565b600067ffffffffffffffff8211156113a2576113a161130c565b5b6113ab826112fb565b9050602081019050919050565b82818337600083830152505050565b60006113da6113d584611387565b61136c565b9050828152602081018484840111156113f6576113f56112f6565b5b6114018482856113b8565b509392505050565b600082601f83011261141e5761141d611107565b5b813561142e8482602086016113c7565b91505092915050565b60006020828403121561144d5761144c611069565b5b600082013567ffffffffffffffff81111561146b5761146a61106e565b5b61147784828501611409565b91505092915050565b6000819050919050565b61149381611480565b82525050565b60006020820190506114ae600083018461148a565b92915050565b6114bd8161123b565b82525050565b60006020820190506114d860008301846114b4565b92915050565b6000806000806000608086880312156114fa576114f9611069565b5b6000611508888289016110bc565b9550506020611519888289016110bc565b945050604061152a888289016110f2565b935050606086013567ffffffffffffffff81111561154b5761154a61106e565b5b61155788828901611116565b92509250509295509295909350565b61156f81611480565b811461157a57600080fd5b50565b60008135905061158c81611566565b92915050565b6000806000604084860312156115ab576115aa611069565b5b60006115b98682870161157d565b935050602084013567ffffffffffffffff8111156115da576115d961106e565b5b6115e686828701611116565b92509250509250925092565b6000806040838503121561160957611608611069565b5b600083013567ffffffffffffffff8111156116275761162661106e565b5b61163385828601611409565b925050602083013567ffffffffffffffff8111156116545761165361106e565b5b61166085828601611409565b9150509250929050565b600080fd5b600061016082840312156116865761168561166a565b5b81905092915050565b6000806000606084860312156116a8576116a7611069565b5b600084013567ffffffffffffffff8111156116c6576116c561106e565b5b6116d28682870161166f565b93505060206116e38682870161157d565b92505060406116f4868287016110f2565b9150509250925092565b611707816110d1565b82525050565b600060208201905061172260008301846116fe565b92915050565b600061173382611093565b9050919050565b61174381611728565b811461174e57600080fd5b50565b6000813590506117608161173a565b92915050565b6000806040838503121561177d5761177c611069565b5b600061178b85828601611751565b925050602083013567ffffffffffffffff8111156117ac576117ab61106e565b5b6117b885828601611409565b9150509250929050565b600081519050919050565b600082825260208201905092915050565b60005b838110156117fc5780820151818401526020810190506117e1565b60008484015250505050565b6000611813826117c2565b61181d81856117cd565b935061182d8185602086016117de565b611836816112fb565b840191505092915050565b6000602082019050818103600083015261185b8184611808565b905092915050565b600081519050919050565b600082825260208201905092915050565b6000819050602082019050919050565b61189881611093565b82525050565b60006118aa838361188f565b60208301905092915050565b6000602082019050919050565b60006118ce82611863565b6118d8818561186e565b93506118e38361187f565b8060005b838110156119145781516118fb888261189e565b9750611906836118b6565b9250506001810190506118e7565b5085935050505092915050565b6000602082019050818103600083015261193b81846118c3565b905092915050565b60008083601f84011261195957611958611107565b5b8235905067ffffffffffffffff8111156119765761197561110c565b5b60208301915083602082028301111561199257611991611111565b5b9250929050565b60008060008060008060008060a0898b0312156119b9576119b8611069565b5b60006119c78b828c016110bc565b98505060206119d88b828c016110bc565b975050604089013567ffffffffffffffff8111156119f9576119f861106e565b5b611a058b828c01611943565b9650965050606089013567ffffffffffffffff811115611a2857611a2761106e565b5b611a348b828c01611943565b9450945050608089013567ffffffffffffffff811115611a5757611a5661106e565b5b611a638b828c01611116565b92509250509295985092959890939650565b600080600060408486031215611a8e57611a8d611069565b5b6000611a9c868287016110bc565b935050602084013567ffffffffffffffff811115611abd57611abc61106e565b5b611ac986828701611116565b92509250509250925092565b600081519050919050565b600082825260208201905092915050565b6000611afc82611ad5565b611b068185611ae0565b9350611b168185602086016117de565b611b1f816112fb565b840191505092915050565b60006020820190508181036000830152611b448184611af1565b905092915050565b6000806000806000806000806000806101208b8d031215611b7057611b6f611069565b5b6000611b7e8d828e016110bc565b9a505060208b013567ffffffffffffffff811115611b9f57611b9e61106e565b5b611bab8d828e01611116565b99509950506040611bbe8d828e016110f2565b9750506060611bcf8d828e016110f2565b9650506080611be08d828e016110f2565b95505060a0611bf18d828e016110f2565b94505060c0611c028d828e016110f2565b93505060e0611c138d828e016110f2565b925050610100611c258d828e016110bc565b9150509295989b9194979a5092959850565b611c4081611093565b82525050565b6000602082019050611c5b6000830184611c37565b92915050565b60008060008060008060a08789031215611c7e57611c7d611069565b5b6000611c8c89828a016110bc565b9650506020611c9d89828a016110bc565b9550506040611cae89828a016110f2565b9450506060611cbf89828a016110f2565b935050608087013567ffffffffffffffff811115611ce057611cdf61106e565b5b611cec89828a01611116565b92509250509295509295509295565b6000611d078385611ae0565b9350611d148385846113b8565b611d1d836112fb565b840190509392505050565b60006040820190508181036000830152611d428186611af1565b90508181036020830152611d57818486611cfb565b9050949350505050565b600081519050611d7081611267565b92915050565b600060208284031215611d8c57611d8b611069565b5b6000611d9a84828501611d61565b91505092915050565b600081519050611db2816110db565b92915050565b600060208284031215611dce57611dcd611069565b5b6000611ddc84828501611da3565b91505092915050565b7f48617368206e6f7420617070726f766564000000000000000000000000000000600082015250565b6000611e1b6011836117cd565b9150611e2682611de5565b602082019050919050565b60006020820190508181036000830152611e4a81611e0e565b9050919050565b6000606082019050611e66600083018661148a565b8181036020830152611e788185611af1565b90508181036040830152611e8c8184611af1565b9050949350505050565b600060208284031215611eac57611eab611069565b5b6000611eba848285016110bc565b91505092915050565b7f496e76616c69642043616c6c6572000000000000000000000000000000000000600082015250565b6000611ef9600e836117cd565b9150611f0482611ec3565b602082019050919050565b60006020820190508181036000830152611f2881611eec565b9050919050565b600080fd5b600080fd5b600080fd5b60008083356001602003843603038112611f5b57611f5a611f2f565b5b80840192508235915067ffffffffffffffff821115611f7d57611f7c611f34565b5b602083019250600182023603831315611f9957611f98611f39565b5b509250929050565b600082905092915050565b600082821b905092915050565b6000611fc58383611fa1565b82611fd0813561123b565b925060048210156120105761200b7fffffffff0000000000000000000000000000000000000000000000000000000083600403600802611fac565b831692505b505092915050565b7f556e737570706f7274656420657865637574696f6e2066756e6374696f6e206960008201527f6400000000000000000000000000000000000000000000000000000000000000602082015250565b60006120746021836117cd565b915061207f82612018565b604082019050919050565b600060208201905081810360008301526120a381612067565b9050919050565b7f50726566756e6420746f6f206869676800000000000000000000000000000000600082015250565b60006120e06010836117cd565b91506120eb826120aa565b602082019050919050565b6000602082019050818103600083015261210f816120d3565b9050919050565b7f556e737570706f7274656420656e74727920706f696e74000000000000000000600082015250565b600061214c6017836117cd565b915061215782612116565b602082019050919050565b6000602082019050818103600083015261217b8161213f565b9050919050565b50565b6000612192600083611ae0565b915061219d82612182565b600082019050919050565b6000819050919050565b600060ff82169050919050565b6000819050919050565b60006121e46121df6121da846121a8565b6121bf565b6121b2565b9050919050565b6121f4816121c9565b82525050565b600060808201905061220f6000830186611c37565b61221c60208301856116fe565b818103604083015261222d81612185565b905061223c60608301846121eb565b949350505050565b61224d816112c0565b811461225857600080fd5b50565b60008151905061226a81612244565b92915050565b60006020828403121561228657612285611069565b5b60006122948482850161225b565b91505092915050565b60006040820190506122b2600083018561148a565b6122bf602083018461148a565b9392505050565b6000815190506122d581611566565b92915050565b6000602082840312156122f1576122f0611069565b5b60006122ff848285016122c6565b91505092915050565b60007fff0000000000000000000000000000000000000000000000000000000000000082169050919050565b6000819050919050565b61234f61234a82612308565b612334565b82525050565b6000819050919050565b61237061236b82611480565b612355565b82525050565b6000612382828761233e565b600182019150612392828661233e565b6001820191506123a2828561235f565b6020820191506123b2828461235f565b60208201915081905095945050505050565b6000819050919050565b60006123e96123e46123df846123c4565b6121bf565b6110d1565b9050919050565b6123f9816123ce565b82525050565b60006040820190506124146000830185611c37565b61242160208301846123f0565b9392505050565b600067ffffffffffffffff8211156124435761244261130c565b5b602082029050602081019050919050565b600081519050612463816110a5565b92915050565b600061247c61247784612428565b61136c565b9050808382526020820190506020840283018581111561249f5761249e611111565b5b835b818110156124c857806124b48882612454565b8452602084019350506020810190506124a1565b5050509392505050565b600082601f8301126124e7576124e6611107565b5b81516124f7848260208601612469565b91505092915050565b6000806040838503121561251757612516611069565b5b600083015167ffffffffffffffff8111156125355761253461106e565b5b612541858286016124d2565b925050602061255285828601612454565b9150509250929050565b600081905092915050565b6000612573838561255c565b93506125808385846113b8565b82840190509392505050565b6000612599828486612567565b91508190509392505050565b6000610140820190506125bb600083018d61148a565b6125c8602083018c611c37565b6125d5604083018b61148a565b6125e2606083018a6116fe565b6125ef60808301896116fe565b6125fc60a08301886116fe565b61260960c08301876116fe565b61261660e08301866116fe565b6126246101008301856116fe565b612632610120830184611c37565b9b9a5050505050505050505050565b600061265c61265761265284611073565b6121bf565b611073565b9050919050565b600061266e82612641565b9050919050565b600061268082612663565b9050919050565b61269081612675565b82525050565b60006060820190506126ab600083018661148a565b6126b860208301856116fe565b6126c56040830184612687565b949350505050565b60006060820190506126e2600083018761148a565b81810360208301526126f48186611af1565b90508181036040830152612709818486611cfb565b90509594505050505056fea2646970667358221220847a43ad4b05ae3500de0d0cabaafef543b2f11ba2345fdaef0296045538419c64736f6c63430008120033",
			"opcodes": "PUSH1 0xC0 PUSH1 0x40 MSTORE CALLVALUE DUP1 ISZERO PUSH3 0x11 JUMPI PUSH1 0x0 DUP1 REVERT JUMPDEST POP PUSH1 0x40 MLOAD PUSH3 0x28EF CODESIZE SUB DUP1 PUSH3 0x28EF DUP4 CODECOPY DUP2 DUP2 ADD PUSH1 0x40 MSTORE DUP2 ADD SWAP1 PUSH3 0x37 SWAP2 SWAP1 PUSH3 0x146 JUMP JUMPDEST DUP1 PUSH32 0x468721A7A101C0AC91D27ACCE9B8B69C104C9D5C990C53E0375B98D5668D392D DUP2 PUSH20 0xFFFFFFFFFFFFFFFFFFFFFFFFFFFFFFFFFFFFFFFF AND PUSH1 0x80 DUP2 PUSH20 0xFFFFFFFFFFFFFFFFFFFFFFFFFFFFFFFFFFFFFFFF AND DUP2 MSTORE POP POP DUP1 PUSH28 0xFFFFFFFFFFFFFFFFFFFFFFFFFFFFFFFFFFFFFFFFFFFFFFFFFFFFFFFF NOT AND PUSH1 0xA0 DUP2 PUSH28 0xFFFFFFFFFFFFFFFFFFFFFFFFFFFFFFFFFFFFFFFFFFFFFFFFFFFFFFFF NOT AND DUP2 MSTORE POP POP POP POP POP PUSH3 0x178 JUMP JUMPDEST PUSH1 0x0 DUP1 REVERT JUMPDEST PUSH1 0x0 PUSH20 0xFFFFFFFFFFFFFFFFFFFFFFFFFFFFFFFFFFFFFFFF DUP3 AND SWAP1 POP SWAP2 SWAP1 POP JUMP JUMPDEST PUSH1 0x0 PUSH3 0x10E DUP3 PUSH3 0xE1 JUMP JUMPDEST SWAP1 POP SWAP2 SWAP1 POP JUMP JUMPDEST PUSH3 0x120 DUP2 PUSH3 0x101 JUMP JUMPDEST DUP2 EQ PUSH3 0x12C JUMPI PUSH1 0x0 DUP1 REVERT JUMPDEST POP JUMP JUMPDEST PUSH1 0x0 DUP2 MLOAD SWAP1 POP PUSH3 0x140 DUP2 PUSH3 0x115 JUMP JUMPDEST SWAP3 SWAP2 POP POP JUMP JUMPDEST PUSH1 0x0 PUSH1 0x20 DUP3 DUP5 SUB SLT ISZERO PUSH3 0x15F JUMPI PUSH3 0x15E PUSH3 0xDC JUMP JUMPDEST JUMPDEST PUSH1 0x0 PUSH3 0x16F DUP5 DUP3 DUP6 ADD PUSH3 0x12F JUMP JUMPDEST SWAP2 POP POP SWAP3 SWAP2 POP POP JUMP JUMPDEST PUSH1 0x80 MLOAD PUSH1 0xA0 MLOAD PUSH2 0x274A PUSH3 0x1A5 PUSH1 0x0 CODECOPY PUSH1 0x0 PUSH2 0x58E ADD MSTORE PUSH1 0x0 DUP2 DUP2 PUSH2 0x9CA ADD MSTORE PUSH2 0xE2C ADD MSTORE PUSH2 0x274A PUSH1 0x0 RETURN INVALID PUSH1 0x80 PUSH1 0x40 MSTORE CALLVALUE DUP1 ISZERO PUSH2 0x10 JUMPI PUSH1 0x0 DUP1 REVERT JUMPDEST POP PUSH1 0x4 CALLDATASIZE LT PUSH2 0x120 JUMPI PUSH1 0x0 CALLDATALOAD PUSH1 0xE0 SHR DUP1 PUSH4 0x6AC24784 GT PUSH2 0xAD JUMPI DUP1 PUSH4 0xC9A363CB GT PUSH2 0x71 JUMPI DUP1 PUSH4 0xC9A363CB EQ PUSH2 0x37B JUMPI DUP1 PUSH4 0xE6FB794D EQ PUSH2 0x3AB JUMPI DUP1 PUSH4 0xF23A6E61 EQ PUSH2 0x3C9 JUMPI DUP1 PUSH4 0xF698DA25 EQ PUSH2 0x3F9 JUMPI DUP1 PUSH4 0xFFA1AD74 EQ PUSH2 0x417 JUMPI PUSH2 0x120 JUMP JUMPDEST DUP1 PUSH4 0x6AC24784 EQ PUSH2 0x2AF JUMPI DUP1 PUSH4 0xA3F4DF7E EQ PUSH2 0x2DF JUMPI DUP1 PUSH4 0xB2494DF3 EQ PUSH2 0x2FD JUMPI DUP1 PUSH4 0xBC197C81 EQ PUSH2 0x31B JUMPI DUP1 PUSH4 0xBD61951D EQ PUSH2 0x34B JUMPI PUSH2 0x120 JUMP JUMPDEST DUP1 PUSH4 0x150B7A02 GT PUSH2 0xF4 JUMPI DUP1 PUSH4 0x150B7A02 EQ PUSH2 0x1BF JUMPI DUP1 PUSH4 0x1626BA7E EQ PUSH2 0x1EF JUMPI DUP1 PUSH4 0x20C13B0B EQ PUSH2 0x21F JUMPI DUP1 PUSH4 0x3A871CDD EQ PUSH2 0x24F JUMPI DUP1 PUSH4 0x4218EF20 EQ PUSH2 0x27F JUMPI PUSH2 0x120 JUMP JUMPDEST DUP1 PUSH3 0x23DE29 EQ PUSH2 0x125 JUMPI DUP1 PUSH4 0x1FFC9A7 EQ PUSH2 0x141 JUMPI DUP1 PUSH4 0xA1028C4 EQ PUSH2 0x171 JUMPI DUP1 PUSH4 0xD9E6A36 EQ PUSH2 0x1A1 JUMPI JUMPDEST PUSH1 0x0 DUP1 REVERT JUMPDEST PUSH2 0x13F PUSH1 0x4 DUP1 CALLDATASIZE SUB DUP2 ADD SWAP1 PUSH2 0x13A SWAP2 SWAP1 PUSH2 0x116C JUMP JUMPDEST PUSH2 0x435 JUMP JUMPDEST STOP JUMPDEST PUSH2 0x15B PUSH1 0x4 DUP1 CALLDATASIZE SUB DUP2 ADD SWAP1 PUSH2 0x156 SWAP2 SWAP1 PUSH2 0x1293 JUMP JUMPDEST PUSH2 0x43F JUMP JUMPDEST PUSH1 0x40 MLOAD PUSH2 0x168 SWAP2 SWAP1 PUSH2 0x12DB JUMP JUMPDEST PUSH1 0x40 MLOAD DUP1 SWAP2 SUB SWAP1 RETURN JUMPDEST PUSH2 0x18B PUSH1 0x4 DUP1 CALLDATASIZE SUB DUP2 ADD SWAP1 PUSH2 0x186 SWAP2 SWAP1 PUSH2 0x1437 JUMP JUMPDEST PUSH2 0x579 JUMP JUMPDEST PUSH1 0x40 MLOAD PUSH2 0x198 SWAP2 SWAP1 PUSH2 0x1499 JUMP JUMPDEST PUSH1 0x40 MLOAD DUP1 SWAP2 SUB SWAP1 RETURN JUMPDEST PUSH2 0x1A9 PUSH2 0x58C JUMP JUMPDEST PUSH1 0x40 MLOAD PUSH2 0x1B6 SWAP2 SWAP1 PUSH2 0x14C3 JUMP JUMPDEST PUSH1 0x40 MLOAD DUP1 SWAP2 SUB SWAP1 RETURN JUMPDEST PUSH2 0x1D9 PUSH1 0x4 DUP1 CALLDATASIZE SUB DUP2 ADD SWAP1 PUSH2 0x1D4 SWAP2 SWAP1 PUSH2 0x14DE JUMP JUMPDEST PUSH2 0x5B0 JUMP JUMPDEST PUSH1 0x40 MLOAD PUSH2 0x1E6 SWAP2 SWAP1 PUSH2 0x14C3 JUMP JUMPDEST PUSH1 0x40 MLOAD DUP1 SWAP2 SUB SWAP1 RETURN JUMPDEST PUSH2 0x209 PUSH1 0x4 DUP1 CALLDATASIZE SUB DUP2 ADD SWAP1 PUSH2 0x204 SWAP2 SWAP1 PUSH2 0x1592 JUMP JUMPDEST PUSH2 0x5C5 JUMP JUMPDEST PUSH1 0x40 MLOAD PUSH2 0x216 SWAP2 SWAP1 PUSH2 0x14C3 JUMP JUMPDEST PUSH1 0x40 MLOAD DUP1 SWAP2 SUB SWAP1 RETURN JUMPDEST PUSH2 0x239 PUSH1 0x4 DUP1 CALLDATASIZE SUB DUP2 ADD SWAP1 PUSH2 0x234 SWAP2 SWAP1 PUSH2 0x15F2 JUMP JUMPDEST PUSH2 0x6D6 JUMP JUMPDEST PUSH1 0x40 MLOAD PUSH2 0x246 SWAP2 SWAP1 PUSH2 0x14C3 JUMP JUMPDEST PUSH1 0x40 MLOAD DUP1 SWAP2 SUB SWAP1 RETURN JUMPDEST PUSH2 0x269 PUSH1 0x4 DUP1 CALLDATASIZE SUB DUP2 ADD SWAP1 PUSH2 0x264 SWAP2 SWAP1 PUSH2 0x168F JUMP JUMPDEST PUSH2 0x834 JUMP JUMPDEST PUSH1 0x40 MLOAD PUSH2 0x276 SWAP2 SWAP1 PUSH2 0x170D JUMP JUMPDEST PUSH1 0x40 MLOAD DUP1 SWAP2 SUB SWAP1 RETURN JUMPDEST PUSH2 0x299 PUSH1 0x4 DUP1 CALLDATASIZE SUB DUP2 ADD SWAP1 PUSH2 0x294 SWAP2 SWAP1 PUSH2 0x1293 JUMP JUMPDEST PUSH2 0xAF8 JUMP JUMPDEST PUSH1 0x40 MLOAD PUSH2 0x2A6 SWAP2 SWAP1 PUSH2 0x12DB JUMP JUMPDEST PUSH1 0x40 MLOAD DUP1 SWAP2 SUB SWAP1 RETURN JUMPDEST PUSH2 0x2C9 PUSH1 0x4 DUP1 CALLDATASIZE SUB DUP2 ADD SWAP1 PUSH2 0x2C4 SWAP2 SWAP1 PUSH2 0x1766 JUMP JUMPDEST PUSH2 0xB18 JUMP JUMPDEST PUSH1 0x40 MLOAD PUSH2 0x2D6 SWAP2 SWAP1 PUSH2 0x1499 JUMP JUMPDEST PUSH1 0x40 MLOAD DUP1 SWAP2 SUB SWAP1 RETURN JUMPDEST PUSH2 0x2E7 PUSH2 0xC1C JUMP JUMPDEST PUSH1 0x40 MLOAD PUSH2 0x2F4 SWAP2 SWAP1 PUSH2 0x1841 JUMP JUMPDEST PUSH1 0x40 MLOAD DUP1 SWAP2 SUB SWAP1 RETURN JUMPDEST PUSH2 0x305 PUSH2 0xC55 JUMP JUMPDEST PUSH1 0x40 MLOAD PUSH2 0x312 SWAP2 SWAP1 PUSH2 0x1921 JUMP JUMPDEST PUSH1 0x40 MLOAD DUP1 SWAP2 SUB SWAP1 RETURN JUMPDEST PUSH2 0x335 PUSH1 0x4 DUP1 CALLDATASIZE SUB DUP2 ADD SWAP1 PUSH2 0x330 SWAP2 SWAP1 PUSH2 0x1999 JUMP JUMPDEST PUSH2 0xCEC JUMP JUMPDEST PUSH1 0x40 MLOAD PUSH2 0x342 SWAP2 SWAP1 PUSH2 0x14C3 JUMP JUMPDEST PUSH1 0x40 MLOAD DUP1 SWAP2 SUB SWAP1 RETURN JUMPDEST PUSH2 0x365 PUSH1 0x4 DUP1 CALLDATASIZE SUB DUP2 ADD SWAP1 PUSH2 0x360 SWAP2 SWAP1 PUSH2 0x1A75 JUMP JUMPDEST PUSH2 0xD04 JUMP JUMPDEST PUSH1 0x40 MLOAD PUSH2 0x372 SWAP2 SWAP1 PUSH2 0x1B2A JUMP JUMPDEST PUSH1 0x40 MLOAD DUP1 SWAP2 SUB SWAP1 RETURN JUMPDEST PUSH2 0x395 PUSH1 0x4 DUP1 CALLDATASIZE SUB DUP2 ADD SWAP1 PUSH2 0x390 SWAP2 SWAP1 PUSH2 0x1B4C JUMP JUMPDEST PUSH2 0xD6E JUMP JUMPDEST PUSH1 0x40 MLOAD PUSH2 0x3A2 SWAP2 SWAP1 PUSH2 0x1B2A JUMP JUMPDEST PUSH1 0x40 MLOAD DUP1 SWAP2 SUB SWAP1 RETURN JUMPDEST PUSH2 0x3B3 PUSH2 0xE2A JUMP JUMPDEST PUSH1 0x40 MLOAD PUSH2 0x3C0 SWAP2 SWAP1 PUSH2 0x1C46 JUMP JUMPDEST PUSH1 0x40 MLOAD DUP1 SWAP2 SUB SWAP1 RETURN JUMPDEST PUSH2 0x3E3 PUSH1 0x4 DUP1 CALLDATASIZE SUB DUP2 ADD SWAP1 PUSH2 0x3DE SWAP2 SWAP1 PUSH2 0x1C61 JUMP JUMPDEST PUSH2 0xE4E JUMP JUMPDEST PUSH1 0x40 MLOAD PUSH2 0x3F0 SWAP2 SWAP1 PUSH2 0x14C3 JUMP JUMPDEST PUSH1 0x40 MLOAD DUP1 SWAP2 SUB SWAP1 RETURN JUMPDEST PUSH2 0x401 PUSH2 0xE64 JUMP JUMPDEST PUSH1 0x40 MLOAD PUSH2 0x40E SWAP2 SWAP1 PUSH2 0x1499 JUMP JUMPDEST PUSH1 0x40 MLOAD DUP1 SWAP2 SUB SWAP1 RETURN JUMPDEST PUSH2 0x41F PUSH2 0xEB6 JUMP JUMPDEST PUSH1 0x40 MLOAD PUSH2 0x42C SWAP2 SWAP1 PUSH2 0x1841 JUMP JUMPDEST PUSH1 0x40 MLOAD DUP1 SWAP2 SUB SWAP1 RETURN JUMPDEST POP POP POP POP POP POP POP POP JUMP JUMPDEST PUSH1 0x0 PUSH32 0x4E2312E000000000000000000000000000000000000000000000000000000000 PUSH28 0xFFFFFFFFFFFFFFFFFFFFFFFFFFFFFFFFFFFFFFFFFFFFFFFFFFFFFFFF NOT AND DUP3 PUSH28 0xFFFFFFFFFFFFFFFFFFFFFFFFFFFFFFFFFFFFFFFFFFFFFFFFFFFFFFFF NOT AND EQ DUP1 PUSH2 0x50A JUMPI POP PUSH32 0x150B7A0200000000000000000000000000000000000000000000000000000000 PUSH28 0xFFFFFFFFFFFFFFFFFFFFFFFFFFFFFFFFFFFFFFFFFFFFFFFFFFFFFFFF NOT AND DUP3 PUSH28 0xFFFFFFFFFFFFFFFFFFFFFFFFFFFFFFFFFFFFFFFFFFFFFFFFFFFFFFFF NOT AND EQ JUMPDEST DUP1 PUSH2 0x572 JUMPI POP PUSH32 0x1FFC9A700000000000000000000000000000000000000000000000000000000 PUSH28 0xFFFFFFFFFFFFFFFFFFFFFFFFFFFFFFFFFFFFFFFFFFFFFFFFFFFFFFFF NOT AND DUP3 PUSH28 0xFFFFFFFFFFFFFFFFFFFFFFFFFFFFFFFFFFFFFFFFFFFFFFFFFFFFFFFF NOT AND EQ JUMPDEST SWAP1 POP SWAP2 SWAP1 POP JUMP JUMPDEST PUSH1 0x0 PUSH2 0x585 CALLER DUP4 PUSH2 0xB18 JUMP JUMPDEST SWAP1 POP SWAP2 SWAP1 POP JUMP JUMPDEST PUSH32 0x0 DUP2 JUMP JUMPDEST PUSH1 0x0 PUSH4 0x150B7A02 PUSH1 0xE0 SHL SWAP1 POP SWAP6 SWAP5 POP POP POP POP POP JUMP JUMPDEST PUSH1 0x0 DUP1 CALLER SWAP1 POP PUSH1 0x0 DUP2 PUSH20 0xFFFFFFFFFFFFFFFFFFFFFFFFFFFFFFFFFFFFFFFF AND PUSH4 0x20C13B0B DUP8 PUSH1 0x40 MLOAD PUSH1 0x20 ADD PUSH2 0x5FA SWAP2 SWAP1 PUSH2 0x1499 JUMP JUMPDEST PUSH1 0x40 MLOAD PUSH1 0x20 DUP2 DUP4 SUB SUB DUP2 MSTORE SWAP1 PUSH1 0x40 MSTORE DUP8 DUP8 PUSH1 0x40 MLOAD DUP5 PUSH4 0xFFFFFFFF AND PUSH1 0xE0 SHL DUP2 MSTORE PUSH1 0x4 ADD PUSH2 0x629 SWAP4 SWAP3 SWAP2 SWAP1 PUSH2 0x1D28 JUMP JUMPDEST PUSH1 0x20 PUSH1 0x40 MLOAD DUP1 DUP4 SUB DUP2 DUP7 GAS STATICCALL ISZERO DUP1 ISZERO PUSH2 0x646 JUMPI RETURNDATASIZE PUSH1 0x0 DUP1 RETURNDATACOPY RETURNDATASIZE PUSH1 0x0 REVERT JUMPDEST POP POP POP POP PUSH1 0x40 MLOAD RETURNDATASIZE PUSH1 0x1F NOT PUSH1 0x1F DUP3 ADD AND DUP3 ADD DUP1 PUSH1 0x40 MSTORE POP DUP2 ADD SWAP1 PUSH2 0x66A SWAP2 SWAP1 PUSH2 0x1D76 JUMP JUMPDEST SWAP1 POP PUSH4 0x20C13B0B PUSH1 0xE0 SHL PUSH28 0xFFFFFFFFFFFFFFFFFFFFFFFFFFFFFFFFFFFFFFFFFFFFFFFFFFFFFFFF NOT AND DUP2 PUSH28 0xFFFFFFFFFFFFFFFFFFFFFFFFFFFFFFFFFFFFFFFFFFFFFFFFFFFFFFFF NOT AND EQ PUSH2 0x6C2 JUMPI PUSH1 0x0 PUSH1 0xE0 SHL PUSH2 0x6CB JUMP JUMPDEST PUSH4 0x1626BA7E PUSH1 0xE0 SHL JUMPDEST SWAP3 POP POP POP SWAP4 SWAP3 POP POP POP JUMP JUMPDEST PUSH1 0x0 DUP1 CALLER SWAP1 POP PUSH1 0x0 PUSH2 0x6E8 DUP3 DUP7 PUSH2 0xB18 JUMP JUMPDEST SWAP1 POP PUSH1 0x0 DUP5 MLOAD SUB PUSH2 0x7B4 JUMPI PUSH1 0x0 DUP3 PUSH20 0xFFFFFFFFFFFFFFFFFFFFFFFFFFFFFFFFFFFFFFFF AND PUSH4 0x5AE6BD37 DUP4 PUSH1 0x40 MLOAD DUP3 PUSH4 0xFFFFFFFF AND PUSH1 0xE0 SHL DUP2 MSTORE PUSH1 0x4 ADD PUSH2 0x72E SWAP2 SWAP1 PUSH2 0x1499 JUMP JUMPDEST PUSH1 0x20 PUSH1 0x40 MLOAD DUP1 DUP4 SUB DUP2 DUP7 GAS STATICCALL ISZERO DUP1 ISZERO PUSH2 0x74B JUMPI RETURNDATASIZE PUSH1 0x0 DUP1 RETURNDATACOPY RETURNDATASIZE PUSH1 0x0 REVERT JUMPDEST POP POP POP POP PUSH1 0x40 MLOAD RETURNDATASIZE PUSH1 0x1F NOT PUSH1 0x1F DUP3 ADD AND DUP3 ADD DUP1 PUSH1 0x40 MSTORE POP DUP2 ADD SWAP1 PUSH2 0x76F SWAP2 SWAP1 PUSH2 0x1DB8 JUMP JUMPDEST SUB PUSH2 0x7AF JUMPI PUSH1 0x40 MLOAD PUSH32 0x8C379A000000000000000000000000000000000000000000000000000000000 DUP2 MSTORE PUSH1 0x4 ADD PUSH2 0x7A6 SWAP1 PUSH2 0x1E31 JUMP JUMPDEST PUSH1 0x40 MLOAD DUP1 SWAP2 SUB SWAP1 REVERT JUMPDEST PUSH2 0x822 JUMP JUMPDEST DUP2 PUSH20 0xFFFFFFFFFFFFFFFFFFFFFFFFFFFFFFFFFFFFFFFF AND PUSH4 0x934F3A11 DUP3 DUP8 DUP8 PUSH1 0x40 MLOAD DUP5 PUSH4 0xFFFFFFFF AND PUSH1 0xE0 SHL DUP2 MSTORE PUSH1 0x4 ADD PUSH2 0x7F1 SWAP4 SWAP3 SWAP2 SWAP1 PUSH2 0x1E51 JUMP JUMPDEST PUSH1 0x0 PUSH1 0x40 MLOAD DUP1 DUP4 SUB DUP2 DUP7 DUP1 EXTCODESIZE ISZERO DUP1 ISZERO PUSH2 0x809 JUMPI PUSH1 0x0 DUP1 REVERT JUMPDEST POP GAS STATICCALL ISZERO DUP1 ISZERO PUSH2 0x81D JUMPI RETURNDATASIZE PUSH1 0x0 DUP1 RETURNDATACOPY RETURNDATASIZE PUSH1 0x0 REVERT JUMPDEST POP POP POP POP JUMPDEST PUSH4 0x20C13B0B PUSH1 0xE0 SHL SWAP3 POP POP POP SWAP3 SWAP2 POP POP JUMP JUMPDEST PUSH1 0x0 DUP1 DUP5 PUSH1 0x0 ADD PUSH1 0x20 DUP2 ADD SWAP1 PUSH2 0x84A SWAP2 SWAP1 PUSH2 0x1E96 JUMP JUMPDEST SWAP1 POP CALLER PUSH20 0xFFFFFFFFFFFFFFFFFFFFFFFFFFFFFFFFFFFFFFFF AND DUP2 PUSH20 0xFFFFFFFFFFFFFFFFFFFFFFFFFFFFFFFFFFFFFFFF AND EQ PUSH2 0x8BA JUMPI PUSH1 0x40 MLOAD PUSH32 0x8C379A000000000000000000000000000000000000000000000000000000000 DUP2 MSTORE PUSH1 0x4 ADD PUSH2 0x8B1 SWAP1 PUSH2 0x1F0F JUMP JUMPDEST PUSH1 0x40 MLOAD DUP1 SWAP2 SUB SWAP1 REVERT JUMPDEST PUSH1 0x0 DUP1 DUP7 DUP1 PUSH1 0x60 ADD SWAP1 PUSH2 0x8CD SWAP2 SWAP1 PUSH2 0x1F3E JUMP JUMPDEST SWAP1 PUSH2 0x8D8 SWAP2 SWAP1 PUSH2 0x1FB9 JUMP JUMPDEST PUSH28 0xFFFFFFFFFFFFFFFFFFFFFFFFFFFFFFFFFFFFFFFFFFFFFFFFFFFFFFFF NOT AND PUSH28 0xFFFFFFFFFFFFFFFFFFFFFFFFFFFFFFFFFFFFFFFFFFFFFFFFFFFFFFFF NOT AND DUP2 MSTORE PUSH1 0x20 ADD SWAP1 DUP2 MSTORE PUSH1 0x20 ADD PUSH1 0x0 KECCAK256 PUSH1 0x0 SWAP1 SLOAD SWAP1 PUSH2 0x100 EXP SWAP1 DIV PUSH1 0xFF AND PUSH2 0x971 JUMPI PUSH1 0x40 MLOAD PUSH32 0x8C379A000000000000000000000000000000000000000000000000000000000 DUP2 MSTORE PUSH1 0x4 ADD PUSH2 0x968 SWAP1 PUSH2 0x208A JUMP JUMPDEST PUSH1 0x40 MLOAD DUP1 SWAP2 SUB SWAP1 REVERT JUMPDEST PUSH2 0x97A DUP6 PUSH2 0xEEF JUMP JUMPDEST DUP4 GT ISZERO PUSH2 0x9BC JUMPI PUSH1 0x40 MLOAD PUSH32 0x8C379A000000000000000000000000000000000000000000000000000000000 DUP2 MSTORE PUSH1 0x4 ADD PUSH2 0x9B3 SWAP1 PUSH2 0x20F6 JUMP JUMPDEST PUSH1 0x40 MLOAD DUP1 SWAP2 SUB SWAP1 REVERT JUMPDEST PUSH1 0x0 PUSH2 0x9C6 PUSH2 0xF07 JUMP JUMPDEST SWAP1 POP PUSH32 0x0 PUSH20 0xFFFFFFFFFFFFFFFFFFFFFFFFFFFFFFFFFFFFFFFF AND DUP2 PUSH20 0xFFFFFFFFFFFFFFFFFFFFFFFFFFFFFFFFFFFFFFFF AND EQ PUSH2 0xA56 JUMPI PUSH1 0x40 MLOAD PUSH32 0x8C379A000000000000000000000000000000000000000000000000000000000 DUP2 MSTORE PUSH1 0x4 ADD PUSH2 0xA4D SWAP1 PUSH2 0x2162 JUMP JUMPDEST PUSH1 0x40 MLOAD DUP1 SWAP2 SUB SWAP1 REVERT JUMPDEST PUSH2 0xA60 DUP2 DUP8 PUSH2 0xF16 JUMP JUMPDEST PUSH1 0x0 DUP5 EQ PUSH2 0xAEB JUMPI DUP2 PUSH20 0xFFFFFFFFFFFFFFFFFFFFFFFFFFFFFFFFFFFFFFFF AND PUSH4 0x468721A7 DUP3 DUP7 PUSH1 0x0 PUSH1 0x40 MLOAD DUP5 PUSH4 0xFFFFFFFF AND PUSH1 0xE0 SHL DUP2 MSTORE PUSH1 0x4 ADD PUSH2 0xAA6 SWAP4 SWAP3 SWAP2 SWAP1 PUSH2 0x21FA JUMP JUMPDEST PUSH1 0x20 PUSH1 0x40 MLOAD DUP1 DUP4 SUB DUP2 PUSH1 0x0 DUP8 GAS CALL ISZERO DUP1 ISZERO PUSH2 0xAC5 JUMPI RETURNDATASIZE PUSH1 0x0 DUP1 RETURNDATACOPY RETURNDATASIZE PUSH1 0x0 REVERT JUMPDEST POP POP POP POP PUSH1 0x40 MLOAD RETURNDATASIZE PUSH1 0x1F NOT PUSH1 0x1F DUP3 ADD AND DUP3 ADD DUP1 PUSH1 0x40 MSTORE POP DUP2 ADD SWAP1 PUSH2 0xAE9 SWAP2 SWAP1 PUSH2 0x2270 JUMP JUMPDEST POP JUMPDEST PUSH1 0x0 SWAP3 POP POP POP SWAP4 SWAP3 POP POP POP JUMP JUMPDEST PUSH1 0x0 PUSH1 0x20 MSTORE DUP1 PUSH1 0x0 MSTORE PUSH1 0x40 PUSH1 0x0 KECCAK256 PUSH1 0x0 SWAP2 POP SLOAD SWAP1 PUSH2 0x100 EXP SWAP1 DIV PUSH1 0xFF AND DUP2 JUMP JUMPDEST PUSH1 0x0 DUP1 PUSH32 0x60B3CBF8B4A223D68D641B3B6DDF9A298E7F33710CF3D3A9D1146B5A6150FBCA PUSH1 0x0 SHL DUP4 DUP1 MLOAD SWAP1 PUSH1 0x20 ADD KECCAK256 PUSH1 0x40 MLOAD PUSH1 0x20 ADD PUSH2 0xB58 SWAP3 SWAP2 SWAP1 PUSH2 0x229D JUMP JUMPDEST PUSH1 0x40 MLOAD PUSH1 0x20 DUP2 DUP4 SUB SUB DUP2 MSTORE SWAP1 PUSH1 0x40 MSTORE DUP1 MLOAD SWAP1 PUSH1 0x20 ADD KECCAK256 SWAP1 POP PUSH1 0x19 PUSH1 0xF8 SHL PUSH1 0x1 PUSH1 0xF8 SHL DUP6 PUSH20 0xFFFFFFFFFFFFFFFFFFFFFFFFFFFFFFFFFFFFFFFF AND PUSH4 0xF698DA25 PUSH1 0x40 MLOAD DUP2 PUSH4 0xFFFFFFFF AND PUSH1 0xE0 SHL DUP2 MSTORE PUSH1 0x4 ADD PUSH1 0x20 PUSH1 0x40 MLOAD DUP1 DUP4 SUB DUP2 DUP7 GAS STATICCALL ISZERO DUP1 ISZERO PUSH2 0xBC5 JUMPI RETURNDATASIZE PUSH1 0x0 DUP1 RETURNDATACOPY RETURNDATASIZE PUSH1 0x0 REVERT JUMPDEST POP POP POP POP PUSH1 0x40 MLOAD RETURNDATASIZE PUSH1 0x1F NOT PUSH1 0x1F DUP3 ADD AND DUP3 ADD DUP1 PUSH1 0x40 MSTORE POP DUP2 ADD SWAP1 PUSH2 0xBE9 SWAP2 SWAP1 PUSH2 0x22DB JUMP JUMPDEST DUP4 PUSH1 0x40 MLOAD PUSH1 0x20 ADD PUSH2 0xBFD SWAP5 SWAP4 SWAP3 SWAP2 SWAP1 PUSH2 0x2376 JUMP JUMPDEST PUSH1 0x40 MLOAD PUSH1 0x20 DUP2 DUP4 SUB SUB DUP2 MSTORE SWAP1 PUSH1 0x40 MSTORE DUP1 MLOAD SWAP1 PUSH1 0x20 ADD KECCAK256 SWAP2 POP POP SWAP3 SWAP2 POP POP JUMP JUMPDEST PUSH1 0x40 MLOAD DUP1 PUSH1 0x40 ADD PUSH1 0x40 MSTORE DUP1 PUSH1 0x18 DUP2 MSTORE PUSH1 0x20 ADD PUSH32 0x44656661756C742043616C6C6261636B2048616E646C65720000000000000000 DUP2 MSTORE POP DUP2 JUMP JUMPDEST PUSH1 0x60 PUSH1 0x0 CALLER SWAP1 POP PUSH1 0x0 DUP2 PUSH20 0xFFFFFFFFFFFFFFFFFFFFFFFFFFFFFFFFFFFFFFFF AND PUSH4 0xCC2F8452 PUSH1 0x1 PUSH1 0xA PUSH1 0x40 MLOAD DUP4 PUSH4 0xFFFFFFFF AND PUSH1 0xE0 SHL DUP2 MSTORE PUSH1 0x4 ADD PUSH2 0xC9B SWAP3 SWAP2 SWAP1 PUSH2 0x23FF JUMP JUMPDEST PUSH1 0x0 PUSH1 0x40 MLOAD DUP1 DUP4 SUB DUP2 DUP7 GAS STATICCALL ISZERO DUP1 ISZERO PUSH2 0xCB8 JUMPI RETURNDATASIZE PUSH1 0x0 DUP1 RETURNDATACOPY RETURNDATASIZE PUSH1 0x0 REVERT JUMPDEST POP POP POP POP PUSH1 0x40 MLOAD RETURNDATASIZE PUSH1 0x0 DUP3 RETURNDATACOPY RETURNDATASIZE PUSH1 0x1F NOT PUSH1 0x1F DUP3 ADD AND DUP3 ADD DUP1 PUSH1 0x40 MSTORE POP DUP2 ADD SWAP1 PUSH2 0xCE1 SWAP2 SWAP1 PUSH2 0x2500 JUMP JUMPDEST POP SWAP1 POP DUP1 SWAP3 POP POP POP SWAP1 JUMP JUMPDEST PUSH1 0x0 PUSH4 0xBC197C81 PUSH1 0xE0 SHL SWAP1 POP SWAP9 SWAP8 POP POP POP POP POP POP POP POP JUMP JUMPDEST PUSH1 0x60 PUSH1 0x40 MLOAD PUSH32 0xB4FABA0900000000000000000000000000000000000000000000000000000000 DUP2 MSTORE PUSH1 0x4 CALLDATASIZE SUB PUSH1 0x4 DUP1 DUP4 ADD CALLDATACOPY PUSH1 0x20 PUSH1 0x0 CALLDATASIZE DUP4 PUSH1 0x0 CALLER GAS CALL POP PUSH1 0x20 RETURNDATASIZE SUB PUSH1 0x40 MLOAD SWAP3 POP DUP1 DUP4 ADD PUSH1 0x40 MSTORE DUP1 PUSH1 0x20 DUP5 RETURNDATACOPY PUSH1 0x0 MLOAD PUSH2 0xD65 JUMPI DUP3 MLOAD PUSH1 0x20 DUP5 ADD REVERT JUMPDEST POP POP SWAP4 SWAP3 POP POP POP JUMP JUMPDEST PUSH1 0x60 PUSH1 0x0 PUSH32 0xF46565707A2AF267352D188E6019A8CB627FD2502C4C9EB44A71577E5AA0C783 DUP13 DUP13 DUP13 PUSH1 0x40 MLOAD PUSH2 0xDA4 SWAP3 SWAP2 SWAP1 PUSH2 0x258C JUMP JUMPDEST PUSH1 0x40 MLOAD DUP1 SWAP2 SUB SWAP1 KECCAK256 DUP12 DUP12 DUP12 DUP12 DUP12 DUP12 DUP12 PUSH1 0x40 MLOAD PUSH1 0x20 ADD PUSH2 0xDCC SWAP11 SWAP10 SWAP9 SWAP8 SWAP7 SWAP6 SWAP5 SWAP4 SWAP3 SWAP2 SWAP1 PUSH2 0x25A5 JUMP JUMPDEST PUSH1 0x40 MLOAD PUSH1 0x20 DUP2 DUP4 SUB SUB DUP2 MSTORE SWAP1 PUSH1 0x40 MSTORE DUP1 MLOAD SWAP1 PUSH1 0x20 ADD KECCAK256 SWAP1 POP PUSH1 0x19 PUSH1 0xF8 SHL PUSH1 0x1 PUSH1 0xF8 SHL PUSH2 0xDF6 PUSH2 0xE64 JUMP JUMPDEST DUP4 PUSH1 0x40 MLOAD PUSH1 0x20 ADD PUSH2 0xE0A SWAP5 SWAP4 SWAP3 SWAP2 SWAP1 PUSH2 0x2376 JUMP JUMPDEST PUSH1 0x40 MLOAD PUSH1 0x20 DUP2 DUP4 SUB SUB DUP2 MSTORE SWAP1 PUSH1 0x40 MSTORE SWAP2 POP POP SWAP11 SWAP10 POP POP POP POP POP POP POP POP POP POP JUMP JUMPDEST PUSH32 0x0 DUP2 JUMP JUMPDEST PUSH1 0x0 PUSH4 0xF23A6E61 PUSH1 0xE0 SHL SWAP1 POP SWAP7 SWAP6 POP POP POP POP POP POP JUMP JUMPDEST PUSH1 0x0 PUSH32 0x47E79534A245952E8B16893A336B85A3D9EA9FA8C573F3D803AFB92A79469218 CHAINID ADDRESS PUSH1 0x40 MLOAD PUSH1 0x20 ADD PUSH2 0xE9B SWAP4 SWAP3 SWAP2 SWAP1 PUSH2 0x2696 JUMP JUMPDEST PUSH1 0x40 MLOAD PUSH1 0x20 DUP2 DUP4 SUB SUB DUP2 MSTORE SWAP1 PUSH1 0x40 MSTORE DUP1 MLOAD SWAP1 PUSH1 0x20 ADD KECCAK256 SWAP1 POP SWAP1 JUMP JUMPDEST PUSH1 0x40 MLOAD DUP1 PUSH1 0x40 ADD PUSH1 0x40 MSTORE DUP1 PUSH1 0x5 DUP2 MSTORE PUSH1 0x20 ADD PUSH32 0x312E302E30000000000000000000000000000000000000000000000000000000 DUP2 MSTORE POP DUP2 JUMP JUMPDEST PUSH1 0x0 DUP2 PUSH1 0xE0 ADD CALLDATALOAD PUSH2 0xEFF DUP4 PUSH2 0x1007 JUMP JUMPDEST MUL SWAP1 POP SWAP2 SWAP1 POP JUMP JUMPDEST PUSH1 0x0 PUSH1 0x14 CALLDATASIZE SUB CALLDATALOAD PUSH1 0x60 SHR SWAP1 POP SWAP1 JUMP JUMPDEST PUSH1 0x0 PUSH2 0xF63 DUP3 PUSH1 0x0 ADD PUSH1 0x20 DUP2 ADD SWAP1 PUSH2 0xF2E SWAP2 SWAP1 PUSH2 0x1E96 JUMP JUMPDEST DUP4 DUP1 PUSH1 0x60 ADD SWAP1 PUSH2 0xF3E SWAP2 SWAP1 PUSH2 0x1F3E JUMP JUMPDEST DUP6 PUSH1 0x20 ADD CALLDATALOAD DUP7 PUSH1 0xA0 ADD CALLDATALOAD DUP8 PUSH1 0xC0 ADD CALLDATALOAD DUP9 PUSH1 0xE0 ADD CALLDATALOAD DUP10 PUSH2 0x100 ADD CALLDATALOAD DUP11 PUSH1 0x80 ADD CALLDATALOAD DUP13 PUSH2 0xD6E JUMP JUMPDEST SWAP1 POP PUSH1 0x0 DUP2 DUP1 MLOAD SWAP1 PUSH1 0x20 ADD KECCAK256 SWAP1 POP DUP3 PUSH1 0x0 ADD PUSH1 0x20 DUP2 ADD SWAP1 PUSH2 0xF84 SWAP2 SWAP1 PUSH2 0x1E96 JUMP JUMPDEST PUSH20 0xFFFFFFFFFFFFFFFFFFFFFFFFFFFFFFFFFFFFFFFF AND PUSH4 0x934F3A11 DUP3 DUP5 DUP7 DUP1 PUSH2 0x140 ADD SWAP1 PUSH2 0xFB2 SWAP2 SWAP1 PUSH2 0x1F3E JUMP JUMPDEST PUSH1 0x40 MLOAD DUP6 PUSH4 0xFFFFFFFF AND PUSH1 0xE0 SHL DUP2 MSTORE PUSH1 0x4 ADD PUSH2 0xFD1 SWAP5 SWAP4 SWAP3 SWAP2 SWAP1 PUSH2 0x26CD JUMP JUMPDEST PUSH1 0x0 PUSH1 0x40 MLOAD DUP1 DUP4 SUB DUP2 DUP7 DUP1 EXTCODESIZE ISZERO DUP1 ISZERO PUSH2 0xFE9 JUMPI PUSH1 0x0 DUP1 REVERT JUMPDEST POP GAS STATICCALL ISZERO DUP1 ISZERO PUSH2 0xFFD JUMPI RETURNDATASIZE PUSH1 0x0 DUP1 RETURNDATACOPY RETURNDATASIZE PUSH1 0x0 REVERT JUMPDEST POP POP POP POP POP POP POP POP JUMP JUMPDEST PUSH1 0x0 DUP1 PUSH2 0x1013 DUP4 PUSH2 0x1041 JUMP JUMPDEST PUSH2 0x101E JUMPI PUSH1 0x1 PUSH2 0x1021 JUMP JUMPDEST PUSH1 0x3 JUMPDEST PUSH1 0xFF AND SWAP1 POP DUP3 PUSH1 0xC0 ADD CALLDATALOAD DUP2 DUP5 PUSH1 0xA0 ADD CALLDATALOAD MUL DUP5 PUSH1 0x80 ADD CALLDATALOAD ADD ADD SWAP2 POP POP SWAP2 SWAP1 POP JUMP JUMPDEST PUSH1 0x0 DUP1 DUP3 DUP1 PUSH2 0x120 ADD SWAP1 PUSH2 0x1055 SWAP2 SWAP1 PUSH2 0x1F3E JUMP JUMPDEST SWAP1 POP GT SWAP1 POP SWAP2 SWAP1 POP JUMP JUMPDEST PUSH1 0x0 PUSH1 0x40 MLOAD SWAP1 POP SWAP1 JUMP JUMPDEST PUSH1 0x0 DUP1 REVERT JUMPDEST PUSH1 0x0 DUP1 REVERT JUMPDEST PUSH1 0x0 PUSH20 0xFFFFFFFFFFFFFFFFFFFFFFFFFFFFFFFFFFFFFFFF DUP3 AND SWAP1 POP SWAP2 SWAP1 POP JUMP JUMPDEST PUSH1 0x0 PUSH2 0x109E DUP3 PUSH2 0x1073 JUMP JUMPDEST SWAP1 POP SWAP2 SWAP1 POP JUMP JUMPDEST PUSH2 0x10AE DUP2 PUSH2 0x1093 JUMP JUMPDEST DUP2 EQ PUSH2 0x10B9 JUMPI PUSH1 0x0 DUP1 REVERT JUMPDEST POP JUMP JUMPDEST PUSH1 0x0 DUP2 CALLDATALOAD SWAP1 POP PUSH2 0x10CB DUP2 PUSH2 0x10A5 JUMP JUMPDEST SWAP3 SWAP2 POP POP JUMP JUMPDEST PUSH1 0x0 DUP2 SWAP1 POP SWAP2 SWAP1 POP JUMP JUMPDEST PUSH2 0x10E4 DUP2 PUSH2 0x10D1 JUMP JUMPDEST DUP2 EQ PUSH2 0x10EF JUMPI PUSH1 0x0 DUP1 REVERT JUMPDEST POP JUMP JUMPDEST PUSH1 0x0 DUP2 CALLDATALOAD SWAP1 POP PUSH2 0x1101 DUP2 PUSH2 0x10DB JUMP JUMPDEST SWAP3 SWAP2 POP POP JUMP JUMPDEST PUSH1 0x0 DUP1 REVERT JUMPDEST PUSH1 0x0 DUP1 REVERT JUMPDEST PUSH1 0x0 DUP1 REVERT JUMPDEST PUSH1 0x0 DUP1 DUP4 PUSH1 0x1F DUP5 ADD SLT PUSH2 0x112C JUMPI PUSH2 0x112B PUSH2 0x1107 JUMP JUMPDEST JUMPDEST DUP3 CALLDATALOAD SWAP1 POP PUSH8 0xFFFFFFFFFFFFFFFF DUP2 GT ISZERO PUSH2 0x1149 JUMPI PUSH2 0x1148 PUSH2 0x110C JUMP JUMPDEST JUMPDEST PUSH1 0x20 DUP4 ADD SWAP2 POP DUP4 PUSH1 0x1 DUP3 MUL DUP4 ADD GT ISZERO PUSH2 0x1165 JUMPI PUSH2 0x1164 PUSH2 0x1111 JUMP JUMPDEST JUMPDEST SWAP3 POP SWAP3 SWAP1 POP JUMP JUMPDEST PUSH1 0x0 DUP1 PUSH1 0x0 DUP1 PUSH1 0x0 DUP1 PUSH1 0x0 DUP1 PUSH1 0xC0 DUP10 DUP12 SUB SLT ISZERO PUSH2 0x118C JUMPI PUSH2 0x118B PUSH2 0x1069 JUMP JUMPDEST JUMPDEST PUSH1 0x0 PUSH2 0x119A DUP12 DUP3 DUP13 ADD PUSH2 0x10BC JUMP JUMPDEST SWAP9 POP POP PUSH1 0x20 PUSH2 0x11AB DUP12 DUP3 DUP13 ADD PUSH2 0x10BC JUMP JUMPDEST SWAP8 POP POP PUSH1 0x40 PUSH2 0x11BC DUP12 DUP3 DUP13 ADD PUSH2 0x10BC JUMP JUMPDEST SWAP7 POP POP PUSH1 0x60 PUSH2 0x11CD DUP12 DUP3 DUP13 ADD PUSH2 0x10F2 JUMP JUMPDEST SWAP6 POP POP PUSH1 0x80 DUP10 ADD CALLDATALOAD PUSH8 0xFFFFFFFFFFFFFFFF DUP2 GT ISZERO PUSH2 0x11EE JUMPI PUSH2 0x11ED PUSH2 0x106E JUMP JUMPDEST JUMPDEST PUSH2 0x11FA DUP12 DUP3 DUP13 ADD PUSH2 0x1116 JUMP JUMPDEST SWAP5 POP SWAP5 POP POP PUSH1 0xA0 DUP10 ADD CALLDATALOAD PUSH8 0xFFFFFFFFFFFFFFFF DUP2 GT ISZERO PUSH2 0x121D JUMPI PUSH2 0x121C PUSH2 0x106E JUMP JUMPDEST JUMPDEST PUSH2 0x1229 DUP12 DUP3 DUP13 ADD PUSH2 0x1116 JUMP JUMPDEST SWAP3 POP SWAP3 POP POP SWAP3 SWAP6 SWAP9 POP SWAP3 SWAP6 SWAP9 SWAP1 SWAP4 SWAP7 POP JUMP JUMPDEST PUSH1 0x0 PUSH32 0xFFFFFFFF00000000000000000000000000000000000000000000000000000000 DUP3 AND SWAP1 POP SWAP2 SWAP1 POP JUMP JUMPDEST PUSH2 0x1270 DUP2 PUSH2 0x123B JUMP JUMPDEST DUP2 EQ PUSH2 0x127B JUMPI PUSH1 0x0 DUP1 REVERT JUMPDEST POP JUMP JUMPDEST PUSH1 0x0 DUP2 CALLDATALOAD SWAP1 POP PUSH2 0x128D DUP2 PUSH2 0x1267 JUMP JUMPDEST SWAP3 SWAP2 POP POP JUMP JUMPDEST PUSH1 0x0 PUSH1 0x20 DUP3 DUP5 SUB SLT ISZERO PUSH2 0x12A9 JUMPI PUSH2 0x12A8 PUSH2 0x1069 JUMP JUMPDEST JUMPDEST PUSH1 0x0 PUSH2 0x12B7 DUP5 DUP3 DUP6 ADD PUSH2 0x127E JUMP JUMPDEST SWAP2 POP POP SWAP3 SWAP2 POP POP JUMP JUMPDEST PUSH1 0x0 DUP2 ISZERO ISZERO SWAP1 POP SWAP2 SWAP1 POP JUMP JUMPDEST PUSH2 0x12D5 DUP2 PUSH2 0x12C0 JUMP JUMPDEST DUP3 MSTORE POP POP JUMP JUMPDEST PUSH1 0x0 PUSH1 0x20 DUP3 ADD SWAP1 POP PUSH2 0x12F0 PUSH1 0x0 DUP4 ADD DUP5 PUSH2 0x12CC JUMP JUMPDEST SWAP3 SWAP2 POP POP JUMP JUMPDEST PUSH1 0x0 DUP1 REVERT JUMPDEST PUSH1 0x0 PUSH1 0x1F NOT PUSH1 0x1F DUP4 ADD AND SWAP1 POP SWAP2 SWAP1 POP JUMP JUMPDEST PUSH32 0x4E487B7100000000000000000000000000000000000000000000000000000000 PUSH1 0x0 MSTORE PUSH1 0x41 PUSH1 0x4 MSTORE PUSH1 0x24 PUSH1 0x0 REVERT JUMPDEST PUSH2 0x1344 DUP3 PUSH2 0x12FB JUMP JUMPDEST DUP2 ADD DUP2 DUP2 LT PUSH8 0xFFFFFFFFFFFFFFFF DUP3 GT OR ISZERO PUSH2 0x1363 JUMPI PUSH2 0x1362 PUSH2 0x130C JUMP JUMPDEST JUMPDEST DUP1 PUSH1 0x40 MSTORE POP POP POP JUMP JUMPDEST PUSH1 0x0 PUSH2 0x1376 PUSH2 0x105F JUMP JUMPDEST SWAP1 POP PUSH2 0x1382 DUP3 DUP3 PUSH2 0x133B JUMP JUMPDEST SWAP2 SWAP1 POP JUMP JUMPDEST PUSH1 0x0 PUSH8 0xFFFFFFFFFFFFFFFF DUP3 GT ISZERO PUSH2 0x13A2 JUMPI PUSH2 0x13A1 PUSH2 0x130C JUMP JUMPDEST JUMPDEST PUSH2 0x13AB DUP3 PUSH2 0x12FB JUMP JUMPDEST SWAP1 POP PUSH1 0x20 DUP2 ADD SWAP1 POP SWAP2 SWAP1 POP JUMP JUMPDEST DUP3 DUP2 DUP4 CALLDATACOPY PUSH1 0x0 DUP4 DUP4 ADD MSTORE POP POP POP JUMP JUMPDEST PUSH1 0x0 PUSH2 0x13DA PUSH2 0x13D5 DUP5 PUSH2 0x1387 JUMP JUMPDEST PUSH2 0x136C JUMP JUMPDEST SWAP1 POP DUP3 DUP2 MSTORE PUSH1 0x20 DUP2 ADD DUP5 DUP5 DUP5 ADD GT ISZERO PUSH2 0x13F6 JUMPI PUSH2 0x13F5 PUSH2 0x12F6 JUMP JUMPDEST JUMPDEST PUSH2 0x1401 DUP5 DUP3 DUP6 PUSH2 0x13B8 JUMP JUMPDEST POP SWAP4 SWAP3 POP POP POP JUMP JUMPDEST PUSH1 0x0 DUP3 PUSH1 0x1F DUP4 ADD SLT PUSH2 0x141E JUMPI PUSH2 0x141D PUSH2 0x1107 JUMP JUMPDEST JUMPDEST DUP2 CALLDATALOAD PUSH2 0x142E DUP5 DUP3 PUSH1 0x20 DUP7 ADD PUSH2 0x13C7 JUMP JUMPDEST SWAP2 POP POP SWAP3 SWAP2 POP POP JUMP JUMPDEST PUSH1 0x0 PUSH1 0x20 DUP3 DUP5 SUB SLT ISZERO PUSH2 0x144D JUMPI PUSH2 0x144C PUSH2 0x1069 JUMP JUMPDEST JUMPDEST PUSH1 0x0 DUP3 ADD CALLDATALOAD PUSH8 0xFFFFFFFFFFFFFFFF DUP2 GT ISZERO PUSH2 0x146B JUMPI PUSH2 0x146A PUSH2 0x106E JUMP JUMPDEST JUMPDEST PUSH2 0x1477 DUP5 DUP3 DUP6 ADD PUSH2 0x1409 JUMP JUMPDEST SWAP2 POP POP SWAP3 SWAP2 POP POP JUMP JUMPDEST PUSH1 0x0 DUP2 SWAP1 POP SWAP2 SWAP1 POP JUMP JUMPDEST PUSH2 0x1493 DUP2 PUSH2 0x1480 JUMP JUMPDEST DUP3 MSTORE POP POP JUMP JUMPDEST PUSH1 0x0 PUSH1 0x20 DUP3 ADD SWAP1 POP PUSH2 0x14AE PUSH1 0x0 DUP4 ADD DUP5 PUSH2 0x148A JUMP JUMPDEST SWAP3 SWAP2 POP POP JUMP JUMPDEST PUSH2 0x14BD DUP2 PUSH2 0x123B JUMP JUMPDEST DUP3 MSTORE POP POP JUMP JUMPDEST PUSH1 0x0 PUSH1 0x20 DUP3 ADD SWAP1 POP PUSH2 0x14D8 PUSH1 0x0 DUP4 ADD DUP5 PUSH2 0x14B4 JUMP JUMPDEST SWAP3 SWAP2 POP POP JUMP JUMPDEST PUSH1 0x0 DUP1 PUSH1 0x0 DUP1 PUSH1 0x0 PUSH1 0x80 DUP7 DUP9 SUB SLT ISZERO PUSH2 0x14FA JUMPI PUSH2 0x14F9 PUSH2 0x1069 JUMP JUMPDEST JUMPDEST PUSH1 0x0 PUSH2 0x1508 DUP9 DUP3 DUP10 ADD PUSH2 0x10BC JUMP JUMPDEST SWAP6 POP POP PUSH1 0x20 PUSH2 0x1519 DUP9 DUP3 DUP10 ADD PUSH2 0x10BC JUMP JUMPDEST SWAP5 POP POP PUSH1 0x40 PUSH2 0x152A DUP9 DUP3 DUP10 ADD PUSH2 0x10F2 JUMP JUMPDEST SWAP4 POP POP PUSH1 0x60 DUP7 ADD CALLDATALOAD PUSH8 0xFFFFFFFFFFFFFFFF DUP2 GT ISZERO PUSH2 0x154B JUMPI PUSH2 0x154A PUSH2 0x106E JUMP JUMPDEST JUMPDEST PUSH2 0x1557 DUP9 DUP3 DUP10 ADD PUSH2 0x1116 JUMP JUMPDEST SWAP3 POP SWAP3 POP POP SWAP3 SWAP6 POP SWAP3 SWAP6 SWAP1 SWAP4 POP JUMP JUMPDEST PUSH2 0x156F DUP2 PUSH2 0x1480 JUMP JUMPDEST DUP2 EQ PUSH2 0x157A JUMPI PUSH1 0x0 DUP1 REVERT JUMPDEST POP JUMP JUMPDEST PUSH1 0x0 DUP2 CALLDATALOAD SWAP1 POP PUSH2 0x158C DUP2 PUSH2 0x1566 JUMP JUMPDEST SWAP3 SWAP2 POP POP JUMP JUMPDEST PUSH1 0x0 DUP1 PUSH1 0x0 PUSH1 0x40 DUP5 DUP7 SUB SLT ISZERO PUSH2 0x15AB JUMPI PUSH2 0x15AA PUSH2 0x1069 JUMP JUMPDEST JUMPDEST PUSH1 0x0 PUSH2 0x15B9 DUP7 DUP3 DUP8 ADD PUSH2 0x157D JUMP JUMPDEST SWAP4 POP POP PUSH1 0x20 DUP5 ADD CALLDATALOAD PUSH8 0xFFFFFFFFFFFFFFFF DUP2 GT ISZERO PUSH2 0x15DA JUMPI PUSH2 0x15D9 PUSH2 0x106E JUMP JUMPDEST JUMPDEST PUSH2 0x15E6 DUP7 DUP3 DUP8 ADD PUSH2 0x1116 JUMP JUMPDEST SWAP3 POP SWAP3 POP POP SWAP3 POP SWAP3 POP SWAP3 JUMP JUMPDEST PUSH1 0x0 DUP1 PUSH1 0x40 DUP4 DUP6 SUB SLT ISZERO PUSH2 0x1609 JUMPI PUSH2 0x1608 PUSH2 0x1069 JUMP JUMPDEST JUMPDEST PUSH1 0x0 DUP4 ADD CALLDATALOAD PUSH8 0xFFFFFFFFFFFFFFFF DUP2 GT ISZERO PUSH2 0x1627 JUMPI PUSH2 0x1626 PUSH2 0x106E JUMP JUMPDEST JUMPDEST PUSH2 0x1633 DUP6 DUP3 DUP7 ADD PUSH2 0x1409 JUMP JUMPDEST SWAP3 POP POP PUSH1 0x20 DUP4 ADD CALLDATALOAD PUSH8 0xFFFFFFFFFFFFFFFF DUP2 GT ISZERO PUSH2 0x1654 JUMPI PUSH2 0x1653 PUSH2 0x106E JUMP JUMPDEST JUMPDEST PUSH2 0x1660 DUP6 DUP3 DUP7 ADD PUSH2 0x1409 JUMP JUMPDEST SWAP2 POP POP SWAP3 POP SWAP3 SWAP1 POP JUMP JUMPDEST PUSH1 0x0 DUP1 REVERT JUMPDEST PUSH1 0x0 PUSH2 0x160 DUP3 DUP5 SUB SLT ISZERO PUSH2 0x1686 JUMPI PUSH2 0x1685 PUSH2 0x166A JUMP JUMPDEST JUMPDEST DUP2 SWAP1 POP SWAP3 SWAP2 POP POP JUMP JUMPDEST PUSH1 0x0 DUP1 PUSH1 0x0 PUSH1 0x60 DUP5 DUP7 SUB SLT ISZERO PUSH2 0x16A8 JUMPI PUSH2 0x16A7 PUSH2 0x1069 JUMP JUMPDEST JUMPDEST PUSH1 0x0 DUP5 ADD CALLDATALOAD PUSH8 0xFFFFFFFFFFFFFFFF DUP2 GT ISZERO PUSH2 0x16C6 JUMPI PUSH2 0x16C5 PUSH2 0x106E JUMP JUMPDEST JUMPDEST PUSH2 0x16D2 DUP7 DUP3 DUP8 ADD PUSH2 0x166F JUMP JUMPDEST SWAP4 POP POP PUSH1 0x20 PUSH2 0x16E3 DUP7 DUP3 DUP8 ADD PUSH2 0x157D JUMP JUMPDEST SWAP3 POP POP PUSH1 0x40 PUSH2 0x16F4 DUP7 DUP3 DUP8 ADD PUSH2 0x10F2 JUMP JUMPDEST SWAP2 POP POP SWAP3 POP SWAP3 POP SWAP3 JUMP JUMPDEST PUSH2 0x1707 DUP2 PUSH2 0x10D1 JUMP JUMPDEST DUP3 MSTORE POP POP JUMP JUMPDEST PUSH1 0x0 PUSH1 0x20 DUP3 ADD SWAP1 POP PUSH2 0x1722 PUSH1 0x0 DUP4 ADD DUP5 PUSH2 0x16FE JUMP JUMPDEST SWAP3 SWAP2 POP POP JUMP JUMPDEST PUSH1 0x0 PUSH2 0x1733 DUP3 PUSH2 0x1093 JUMP JUMPDEST SWAP1 POP SWAP2 SWAP1 POP JUMP JUMPDEST PUSH2 0x1743 DUP2 PUSH2 0x1728 JUMP JUMPDEST DUP2 EQ PUSH2 0x174E JUMPI PUSH1 0x0 DUP1 REVERT JUMPDEST POP JUMP JUMPDEST PUSH1 0x0 DUP2 CALLDATALOAD SWAP1 POP PUSH2 0x1760 DUP2 PUSH2 0x173A JUMP JUMPDEST SWAP3 SWAP2 POP POP JUMP JUMPDEST PUSH1 0x0 DUP1 PUSH1 0x40 DUP4 DUP6 SUB SLT ISZERO PUSH2 0x177D JUMPI PUSH2 0x177C PUSH2 0x1069 JUMP JUMPDEST JUMPDEST PUSH1 0x0 PUSH2 0x178B DUP6 DUP3 DUP7 ADD PUSH2 0x1751 JUMP JUMPDEST SWAP3 POP POP PUSH1 0x20 DUP4 ADD CALLDATALOAD PUSH8 0xFFFFFFFFFFFFFFFF DUP2 GT ISZERO PUSH2 0x17AC JUMPI PUSH2 0x17AB PUSH2 0x106E JUMP JUMPDEST JUMPDEST PUSH2 0x17B8 DUP6 DUP3 DUP7 ADD PUSH2 0x1409 JUMP JUMPDEST SWAP2 POP POP SWAP3 POP SWAP3 SWAP1 POP JUMP JUMPDEST PUSH1 0x0 DUP2 MLOAD SWAP1 POP SWAP2 SWAP1 POP JUMP JUMPDEST PUSH1 0x0 DUP3 DUP3 MSTORE PUSH1 0x20 DUP3 ADD SWAP1 POP SWAP3 SWAP2 POP POP JUMP JUMPDEST PUSH1 0x0 JUMPDEST DUP4 DUP2 LT ISZERO PUSH2 0x17FC JUMPI DUP1 DUP3 ADD MLOAD DUP2 DUP5 ADD MSTORE PUSH1 0x20 DUP2 ADD SWAP1 POP PUSH2 0x17E1 JUMP JUMPDEST PUSH1 0x0 DUP5 DUP5 ADD MSTORE POP POP POP POP JUMP JUMPDEST PUSH1 0x0 PUSH2 0x1813 DUP3 PUSH2 0x17C2 JUMP JUMPDEST PUSH2 0x181D DUP2 DUP6 PUSH2 0x17CD JUMP JUMPDEST SWAP4 POP PUSH2 0x182D DUP2 DUP6 PUSH1 0x20 DUP7 ADD PUSH2 0x17DE JUMP JUMPDEST PUSH2 0x1836 DUP2 PUSH2 0x12FB JUMP JUMPDEST DUP5 ADD SWAP2 POP POP SWAP3 SWAP2 POP POP JUMP JUMPDEST PUSH1 0x0 PUSH1 0x20 DUP3 ADD SWAP1 POP DUP2 DUP2 SUB PUSH1 0x0 DUP4 ADD MSTORE PUSH2 0x185B DUP2 DUP5 PUSH2 0x1808 JUMP JUMPDEST SWAP1 POP SWAP3 SWAP2 POP POP JUMP JUMPDEST PUSH1 0x0 DUP2 MLOAD SWAP1 POP SWAP2 SWAP1 POP JUMP JUMPDEST PUSH1 0x0 DUP3 DUP3 MSTORE PUSH1 0x20 DUP3 ADD SWAP1 POP SWAP3 SWAP2 POP POP JUMP JUMPDEST PUSH1 0x0 DUP2 SWAP1 POP PUSH1 0x20 DUP3 ADD SWAP1 POP SWAP2 SWAP1 POP JUMP JUMPDEST PUSH2 0x1898 DUP2 PUSH2 0x1093 JUMP JUMPDEST DUP3 MSTORE POP POP JUMP JUMPDEST PUSH1 0x0 PUSH2 0x18AA DUP4 DUP4 PUSH2 0x188F JUMP JUMPDEST PUSH1 0x20 DUP4 ADD SWAP1 POP SWAP3 SWAP2 POP POP JUMP JUMPDEST PUSH1 0x0 PUSH1 0x20 DUP3 ADD SWAP1 POP SWAP2 SWAP1 POP JUMP JUMPDEST PUSH1 0x0 PUSH2 0x18CE DUP3 PUSH2 0x1863 JUMP JUMPDEST PUSH2 0x18D8 DUP2 DUP6 PUSH2 0x186E JUMP JUMPDEST SWAP4 POP PUSH2 0x18E3 DUP4 PUSH2 0x187F JUMP JUMPDEST DUP1 PUSH1 0x0 JUMPDEST DUP4 DUP2 LT ISZERO PUSH2 0x1914 JUMPI DUP2 MLOAD PUSH2 0x18FB DUP9 DUP3 PUSH2 0x189E JUMP JUMPDEST SWAP8 POP PUSH2 0x1906 DUP4 PUSH2 0x18B6 JUMP JUMPDEST SWAP3 POP POP PUSH1 0x1 DUP2 ADD SWAP1 POP PUSH2 0x18E7 JUMP JUMPDEST POP DUP6 SWAP4 POP POP POP POP SWAP3 SWAP2 POP POP JUMP JUMPDEST PUSH1 0x0 PUSH1 0x20 DUP3 ADD SWAP1 POP DUP2 DUP2 SUB PUSH1 0x0 DUP4 ADD MSTORE PUSH2 0x193B DUP2 DUP5 PUSH2 0x18C3 JUMP JUMPDEST SWAP1 POP SWAP3 SWAP2 POP POP JUMP JUMPDEST PUSH1 0x0 DUP1 DUP4 PUSH1 0x1F DUP5 ADD SLT PUSH2 0x1959 JUMPI PUSH2 0x1958 PUSH2 0x1107 JUMP JUMPDEST JUMPDEST DUP3 CALLDATALOAD SWAP1 POP PUSH8 0xFFFFFFFFFFFFFFFF DUP2 GT ISZERO PUSH2 0x1976 JUMPI PUSH2 0x1975 PUSH2 0x110C JUMP JUMPDEST JUMPDEST PUSH1 0x20 DUP4 ADD SWAP2 POP DUP4 PUSH1 0x20 DUP3 MUL DUP4 ADD GT ISZERO PUSH2 0x1992 JUMPI PUSH2 0x1991 PUSH2 0x1111 JUMP JUMPDEST JUMPDEST SWAP3 POP SWAP3 SWAP1 POP JUMP JUMPDEST PUSH1 0x0 DUP1 PUSH1 0x0 DUP1 PUSH1 0x0 DUP1 PUSH1 0x0 DUP1 PUSH1 0xA0 DUP10 DUP12 SUB SLT ISZERO PUSH2 0x19B9 JUMPI PUSH2 0x19B8 PUSH2 0x1069 JUMP JUMPDEST JUMPDEST PUSH1 0x0 PUSH2 0x19C7 DUP12 DUP3 DUP13 ADD PUSH2 0x10BC JUMP JUMPDEST SWAP9 POP POP PUSH1 0x20 PUSH2 0x19D8 DUP12 DUP3 DUP13 ADD PUSH2 0x10BC JUMP JUMPDEST SWAP8 POP POP PUSH1 0x40 DUP10 ADD CALLDATALOAD PUSH8 0xFFFFFFFFFFFFFFFF DUP2 GT ISZERO PUSH2 0x19F9 JUMPI PUSH2 0x19F8 PUSH2 0x106E JUMP JUMPDEST JUMPDEST PUSH2 0x1A05 DUP12 DUP3 DUP13 ADD PUSH2 0x1943 JUMP JUMPDEST SWAP7 POP SWAP7 POP POP PUSH1 0x60 DUP10 ADD CALLDATALOAD PUSH8 0xFFFFFFFFFFFFFFFF DUP2 GT ISZERO PUSH2 0x1A28 JUMPI PUSH2 0x1A27 PUSH2 0x106E JUMP JUMPDEST JUMPDEST PUSH2 0x1A34 DUP12 DUP3 DUP13 ADD PUSH2 0x1943 JUMP JUMPDEST SWAP5 POP SWAP5 POP POP PUSH1 0x80 DUP10 ADD CALLDATALOAD PUSH8 0xFFFFFFFFFFFFFFFF DUP2 GT ISZERO PUSH2 0x1A57 JUMPI PUSH2 0x1A56 PUSH2 0x106E JUMP JUMPDEST JUMPDEST PUSH2 0x1A63 DUP12 DUP3 DUP13 ADD PUSH2 0x1116 JUMP JUMPDEST SWAP3 POP SWAP3 POP POP SWAP3 SWAP6 SWAP9 POP SWAP3 SWAP6 SWAP9 SWAP1 SWAP4 SWAP7 POP JUMP JUMPDEST PUSH1 0x0 DUP1 PUSH1 0x0 PUSH1 0x40 DUP5 DUP7 SUB SLT ISZERO PUSH2 0x1A8E JUMPI PUSH2 0x1A8D PUSH2 0x1069 JUMP JUMPDEST JUMPDEST PUSH1 0x0 PUSH2 0x1A9C DUP7 DUP3 DUP8 ADD PUSH2 0x10BC JUMP JUMPDEST SWAP4 POP POP PUSH1 0x20 DUP5 ADD CALLDATALOAD PUSH8 0xFFFFFFFFFFFFFFFF DUP2 GT ISZERO PUSH2 0x1ABD JUMPI PUSH2 0x1ABC PUSH2 0x106E JUMP JUMPDEST JUMPDEST PUSH2 0x1AC9 DUP7 DUP3 DUP8 ADD PUSH2 0x1116 JUMP JUMPDEST SWAP3 POP SWAP3 POP POP SWAP3 POP SWAP3 POP SWAP3 JUMP JUMPDEST PUSH1 0x0 DUP2 MLOAD SWAP1 POP SWAP2 SWAP1 POP JUMP JUMPDEST PUSH1 0x0 DUP3 DUP3 MSTORE PUSH1 0x20 DUP3 ADD SWAP1 POP SWAP3 SWAP2 POP POP JUMP JUMPDEST PUSH1 0x0 PUSH2 0x1AFC DUP3 PUSH2 0x1AD5 JUMP JUMPDEST PUSH2 0x1B06 DUP2 DUP6 PUSH2 0x1AE0 JUMP JUMPDEST SWAP4 POP PUSH2 0x1B16 DUP2 DUP6 PUSH1 0x20 DUP7 ADD PUSH2 0x17DE JUMP JUMPDEST PUSH2 0x1B1F DUP2 PUSH2 0x12FB JUMP JUMPDEST DUP5 ADD SWAP2 POP POP SWAP3 SWAP2 POP POP JUMP JUMPDEST PUSH1 0x0 PUSH1 0x20 DUP3 ADD SWAP1 POP DUP2 DUP2 SUB PUSH1 0x0 DUP4 ADD MSTORE PUSH2 0x1B44 DUP2 DUP5 PUSH2 0x1AF1 JUMP JUMPDEST SWAP1 POP SWAP3 SWAP2 POP POP JUMP JUMPDEST PUSH1 0x0 DUP1 PUSH1 0x0 DUP1 PUSH1 0x0 DUP1 PUSH1 0x0 DUP1 PUSH1 0x0 DUP1 PUSH2 0x120 DUP12 DUP14 SUB SLT ISZERO PUSH2 0x1B70 JUMPI PUSH2 0x1B6F PUSH2 0x1069 JUMP JUMPDEST JUMPDEST PUSH1 0x0 PUSH2 0x1B7E DUP14 DUP3 DUP15 ADD PUSH2 0x10BC JUMP JUMPDEST SWAP11 POP POP PUSH1 0x20 DUP12 ADD CALLDATALOAD PUSH8 0xFFFFFFFFFFFFFFFF DUP2 GT ISZERO PUSH2 0x1B9F JUMPI PUSH2 0x1B9E PUSH2 0x106E JUMP JUMPDEST JUMPDEST PUSH2 0x1BAB DUP14 DUP3 DUP15 ADD PUSH2 0x1116 JUMP JUMPDEST SWAP10 POP SWAP10 POP POP PUSH1 0x40 PUSH2 0x1BBE DUP14 DUP3 DUP15 ADD PUSH2 0x10F2 JUMP JUMPDEST SWAP8 POP POP PUSH1 0x60 PUSH2 0x1BCF DUP14 DUP3 DUP15 ADD PUSH2 0x10F2 JUMP JUMPDEST SWAP7 POP POP PUSH1 0x80 PUSH2 0x1BE0 DUP14 DUP3 DUP15 ADD PUSH2 0x10F2 JUMP JUMPDEST SWAP6 POP POP PUSH1 0xA0 PUSH2 0x1BF1 DUP14 DUP3 DUP15 ADD PUSH2 0x10F2 JUMP JUMPDEST SWAP5 POP POP PUSH1 0xC0 PUSH2 0x1C02 DUP14 DUP3 DUP15 ADD PUSH2 0x10F2 JUMP JUMPDEST SWAP4 POP POP PUSH1 0xE0 PUSH2 0x1C13 DUP14 DUP3 DUP15 ADD PUSH2 0x10F2 JUMP JUMPDEST SWAP3 POP POP PUSH2 0x100 PUSH2 0x1C25 DUP14 DUP3 DUP15 ADD PUSH2 0x10BC JUMP JUMPDEST SWAP2 POP POP SWAP3 SWAP6 SWAP9 SWAP12 SWAP2 SWAP5 SWAP8 SWAP11 POP SWAP3 SWAP6 SWAP9 POP JUMP JUMPDEST PUSH2 0x1C40 DUP2 PUSH2 0x1093 JUMP JUMPDEST DUP3 MSTORE POP POP JUMP JUMPDEST PUSH1 0x0 PUSH1 0x20 DUP3 ADD SWAP1 POP PUSH2 0x1C5B PUSH1 0x0 DUP4 ADD DUP5 PUSH2 0x1C37 JUMP JUMPDEST SWAP3 SWAP2 POP POP JUMP JUMPDEST PUSH1 0x0 DUP1 PUSH1 0x0 DUP1 PUSH1 0x0 DUP1 PUSH1 0xA0 DUP8 DUP10 SUB SLT ISZERO PUSH2 0x1C7E JUMPI PUSH2 0x1C7D PUSH2 0x1069 JUMP JUMPDEST JUMPDEST PUSH1 0x0 PUSH2 0x1C8C DUP10 DUP3 DUP11 ADD PUSH2 0x10BC JUMP JUMPDEST SWAP7 POP POP PUSH1 0x20 PUSH2 0x1C9D DUP10 DUP3 DUP11 ADD PUSH2 0x10BC JUMP JUMPDEST SWAP6 POP POP PUSH1 0x40 PUSH2 0x1CAE DUP10 DUP3 DUP11 ADD PUSH2 0x10F2 JUMP JUMPDEST SWAP5 POP POP PUSH1 0x60 PUSH2 0x1CBF DUP10 DUP3 DUP11 ADD PUSH2 0x10F2 JUMP JUMPDEST SWAP4 POP POP PUSH1 0x80 DUP8 ADD CALLDATALOAD PUSH8 0xFFFFFFFFFFFFFFFF DUP2 GT ISZERO PUSH2 0x1CE0 JUMPI PUSH2 0x1CDF PUSH2 0x106E JUMP JUMPDEST JUMPDEST PUSH2 0x1CEC DUP10 DUP3 DUP11 ADD PUSH2 0x1116 JUMP JUMPDEST SWAP3 POP SWAP3 POP POP SWAP3 SWAP6 POP SWAP3 SWAP6 POP SWAP3 SWAP6 JUMP JUMPDEST PUSH1 0x0 PUSH2 0x1D07 DUP4 DUP6 PUSH2 0x1AE0 JUMP JUMPDEST SWAP4 POP PUSH2 0x1D14 DUP4 DUP6 DUP5 PUSH2 0x13B8 JUMP JUMPDEST PUSH2 0x1D1D DUP4 PUSH2 0x12FB JUMP JUMPDEST DUP5 ADD SWAP1 POP SWAP4 SWAP3 POP POP POP JUMP JUMPDEST PUSH1 0x0 PUSH1 0x40 DUP3 ADD SWAP1 POP DUP2 DUP2 SUB PUSH1 0x0 DUP4 ADD MSTORE PUSH2 0x1D42 DUP2 DUP7 PUSH2 0x1AF1 JUMP JUMPDEST SWAP1 POP DUP2 DUP2 SUB PUSH1 0x20 DUP4 ADD MSTORE PUSH2 0x1D57 DUP2 DUP5 DUP7 PUSH2 0x1CFB JUMP JUMPDEST SWAP1 POP SWAP5 SWAP4 POP POP POP POP JUMP JUMPDEST PUSH1 0x0 DUP2 MLOAD SWAP1 POP PUSH2 0x1D70 DUP2 PUSH2 0x1267 JUMP JUMPDEST SWAP3 SWAP2 POP POP JUMP JUMPDEST PUSH1 0x0 PUSH1 0x20 DUP3 DUP5 SUB SLT ISZERO PUSH2 0x1D8C JUMPI PUSH2 0x1D8B PUSH2 0x1069 JUMP JUMPDEST JUMPDEST PUSH1 0x0 PUSH2 0x1D9A DUP5 DUP3 DUP6 ADD PUSH2 0x1D61 JUMP JUMPDEST SWAP2 POP POP SWAP3 SWAP2 POP POP JUMP JUMPDEST PUSH1 0x0 DUP2 MLOAD SWAP1 POP PUSH2 0x1DB2 DUP2 PUSH2 0x10DB JUMP JUMPDEST SWAP3 SWAP2 POP POP JUMP JUMPDEST PUSH1 0x0 PUSH1 0x20 DUP3 DUP5 SUB SLT ISZERO PUSH2 0x1DCE JUMPI PUSH2 0x1DCD PUSH2 0x1069 JUMP JUMPDEST JUMPDEST PUSH1 0x0 PUSH2 0x1DDC DUP5 DUP3 DUP6 ADD PUSH2 0x1DA3 JUMP JUMPDEST SWAP2 POP POP SWAP3 SWAP2 POP POP JUMP JUMPDEST PUSH32 0x48617368206E6F7420617070726F766564000000000000000000000000000000 PUSH1 0x0 DUP3 ADD MSTORE POP JUMP JUMPDEST PUSH1 0x0 PUSH2 0x1E1B PUSH1 0x11 DUP4 PUSH2 0x17CD JUMP JUMPDEST SWAP2 POP PUSH2 0x1E26 DUP3 PUSH2 0x1DE5 JUMP JUMPDEST PUSH1 0x20 DUP3 ADD SWAP1 POP SWAP2 SWAP1 POP JUMP JUMPDEST PUSH1 0x0 PUSH1 0x20 DUP3 ADD SWAP1 POP DUP2 DUP2 SUB PUSH1 0x0 DUP4 ADD MSTORE PUSH2 0x1E4A DUP2 PUSH2 0x1E0E JUMP JUMPDEST SWAP1 POP SWAP2 SWAP1 POP JUMP JUMPDEST PUSH1 0x0 PUSH1 0x60 DUP3 ADD SWAP1 POP PUSH2 0x1E66 PUSH1 0x0 DUP4 ADD DUP7 PUSH2 0x148A JUMP JUMPDEST DUP2 DUP2 SUB PUSH1 0x20 DUP4 ADD MSTORE PUSH2 0x1E78 DUP2 DUP6 PUSH2 0x1AF1 JUMP JUMPDEST SWAP1 POP DUP2 DUP2 SUB PUSH1 0x40 DUP4 ADD MSTORE PUSH2 0x1E8C DUP2 DUP5 PUSH2 0x1AF1 JUMP JUMPDEST SWAP1 POP SWAP5 SWAP4 POP POP POP POP JUMP JUMPDEST PUSH1 0x0 PUSH1 0x20 DUP3 DUP5 SUB SLT ISZERO PUSH2 0x1EAC JUMPI PUSH2 0x1EAB PUSH2 0x1069 JUMP JUMPDEST JUMPDEST PUSH1 0x0 PUSH2 0x1EBA DUP5 DUP3 DUP6 ADD PUSH2 0x10BC JUMP JUMPDEST SWAP2 POP POP SWAP3 SWAP2 POP POP JUMP JUMPDEST PUSH32 0x496E76616C69642043616C6C6572000000000000000000000000000000000000 PUSH1 0x0 DUP3 ADD MSTORE POP JUMP JUMPDEST PUSH1 0x0 PUSH2 0x1EF9 PUSH1 0xE DUP4 PUSH2 0x17CD JUMP JUMPDEST SWAP2 POP PUSH2 0x1F04 DUP3 PUSH2 0x1EC3 JUMP JUMPDEST PUSH1 0x20 DUP3 ADD SWAP1 POP SWAP2 SWAP1 POP JUMP JUMPDEST PUSH1 0x0 PUSH1 0x20 DUP3 ADD SWAP1 POP DUP2 DUP2 SUB PUSH1 0x0 DUP4 ADD MSTORE PUSH2 0x1F28 DUP2 PUSH2 0x1EEC JUMP JUMPDEST SWAP1 POP SWAP2 SWAP1 POP JUMP JUMPDEST PUSH1 0x0 DUP1 REVERT JUMPDEST PUSH1 0x0 DUP1 REVERT JUMPDEST PUSH1 0x0 DUP1 REVERT JUMPDEST PUSH1 0x0 DUP1 DUP4 CALLDATALOAD PUSH1 0x1 PUSH1 0x20 SUB DUP5 CALLDATASIZE SUB SUB DUP2 SLT PUSH2 0x1F5B JUMPI PUSH2 0x1F5A PUSH2 0x1F2F JUMP JUMPDEST JUMPDEST DUP1 DUP5 ADD SWAP3 POP DUP3 CALLDATALOAD SWAP2 POP PUSH8 0xFFFFFFFFFFFFFFFF DUP3 GT ISZERO PUSH2 0x1F7D JUMPI PUSH2 0x1F7C PUSH2 0x1F34 JUMP JUMPDEST JUMPDEST PUSH1 0x20 DUP4 ADD SWAP3 POP PUSH1 0x1 DUP3 MUL CALLDATASIZE SUB DUP4 SGT ISZERO PUSH2 0x1F99 JUMPI PUSH2 0x1F98 PUSH2 0x1F39 JUMP JUMPDEST JUMPDEST POP SWAP3 POP SWAP3 SWAP1 POP JUMP JUMPDEST PUSH1 0x0 DUP3 SWAP1 POP SWAP3 SWAP2 POP POP JUMP JUMPDEST PUSH1 0x0 DUP3 DUP3 SHL SWAP1 POP SWAP3 SWAP2 POP POP JUMP JUMPDEST PUSH1 0x0 PUSH2 0x1FC5 DUP4 DUP4 PUSH2 0x1FA1 JUMP JUMPDEST DUP3 PUSH2 0x1FD0 DUP2 CALLDATALOAD PUSH2 0x123B JUMP JUMPDEST SWAP3 POP PUSH1 0x4 DUP3 LT ISZERO PUSH2 0x2010 JUMPI PUSH2 0x200B PUSH32 0xFFFFFFFF00000000000000000000000000000000000000000000000000000000 DUP4 PUSH1 0x4 SUB PUSH1 0x8 MUL PUSH2 0x1FAC JUMP JUMPDEST DUP4 AND SWAP3 POP JUMPDEST POP POP SWAP3 SWAP2 POP POP JUMP JUMPDEST PUSH32 0x556E737570706F7274656420657865637574696F6E2066756E6374696F6E2069 PUSH1 0x0 DUP3 ADD MSTORE PUSH32 0x6400000000000000000000000000000000000000000000000000000000000000 PUSH1 0x20 DUP3 ADD MSTORE POP JUMP JUMPDEST PUSH1 0x0 PUSH2 0x2074 PUSH1 0x21 DUP4 PUSH2 0x17CD JUMP JUMPDEST SWAP2 POP PUSH2 0x207F DUP3 PUSH2 0x2018 JUMP JUMPDEST PUSH1 0x40 DUP3 ADD SWAP1 POP SWAP2 SWAP1 POP JUMP JUMPDEST PUSH1 0x0 PUSH1 0x20 DUP3 ADD SWAP1 POP DUP2 DUP2 SUB PUSH1 0x0 DUP4 ADD MSTORE PUSH2 0x20A3 DUP2 PUSH2 0x2067 JUMP JUMPDEST SWAP1 POP SWAP2 SWAP1 POP JUMP JUMPDEST PUSH32 0x50726566756E6420746F6F206869676800000000000000000000000000000000 PUSH1 0x0 DUP3 ADD MSTORE POP JUMP JUMPDEST PUSH1 0x0 PUSH2 0x20E0 PUSH1 0x10 DUP4 PUSH2 0x17CD JUMP JUMPDEST SWAP2 POP PUSH2 0x20EB DUP3 PUSH2 0x20AA JUMP JUMPDEST PUSH1 0x20 DUP3 ADD SWAP1 POP SWAP2 SWAP1 POP JUMP JUMPDEST PUSH1 0x0 PUSH1 0x20 DUP3 ADD SWAP1 POP DUP2 DUP2 SUB PUSH1 0x0 DUP4 ADD MSTORE PUSH2 0x210F DUP2 PUSH2 0x20D3 JUMP JUMPDEST SWAP1 POP SWAP2 SWAP1 POP JUMP JUMPDEST PUSH32 0x556E737570706F7274656420656E74727920706F696E74000000000000000000 PUSH1 0x0 DUP3 ADD MSTORE POP JUMP JUMPDEST PUSH1 0x0 PUSH2 0x214C PUSH1 0x17 DUP4 PUSH2 0x17CD JUMP JUMPDEST SWAP2 POP PUSH2 0x2157 DUP3 PUSH2 0x2116 JUMP JUMPDEST PUSH1 0x20 DUP3 ADD SWAP1 POP SWAP2 SWAP1 POP JUMP JUMPDEST PUSH1 0x0 PUSH1 0x20 DUP3 ADD SWAP1 POP DUP2 DUP2 SUB PUSH1 0x0 DUP4 ADD MSTORE PUSH2 0x217B DUP2 PUSH2 0x213F JUMP JUMPDEST SWAP1 POP SWAP2 SWAP1 POP JUMP JUMPDEST POP JUMP JUMPDEST PUSH1 0x0 PUSH2 0x2192 PUSH1 0x0 DUP4 PUSH2 0x1AE0 JUMP JUMPDEST SWAP2 POP PUSH2 0x219D DUP3 PUSH2 0x2182 JUMP JUMPDEST PUSH1 0x0 DUP3 ADD SWAP1 POP SWAP2 SWAP1 POP JUMP JUMPDEST PUSH1 0x0 DUP2 SWAP1 POP SWAP2 SWAP1 POP JUMP JUMPDEST PUSH1 0x0 PUSH1 0xFF DUP3 AND SWAP1 POP SWAP2 SWAP1 POP JUMP JUMPDEST PUSH1 0x0 DUP2 SWAP1 POP SWAP2 SWAP1 POP JUMP JUMPDEST PUSH1 0x0 PUSH2 0x21E4 PUSH2 0x21DF PUSH2 0x21DA DUP5 PUSH2 0x21A8 JUMP JUMPDEST PUSH2 0x21BF JUMP JUMPDEST PUSH2 0x21B2 JUMP JUMPDEST SWAP1 POP SWAP2 SWAP1 POP JUMP JUMPDEST PUSH2 0x21F4 DUP2 PUSH2 0x21C9 JUMP JUMPDEST DUP3 MSTORE POP POP JUMP JUMPDEST PUSH1 0x0 PUSH1 0x80 DUP3 ADD SWAP1 POP PUSH2 0x220F PUSH1 0x0 DUP4 ADD DUP7 PUSH2 0x1C37 JUMP JUMPDEST PUSH2 0x221C PUSH1 0x20 DUP4 ADD DUP6 PUSH2 0x16FE JUMP JUMPDEST DUP2 DUP2 SUB PUSH1 0x40 DUP4 ADD MSTORE PUSH2 0x222D DUP2 PUSH2 0x2185 JUMP JUMPDEST SWAP1 POP PUSH2 0x223C PUSH1 0x60 DUP4 ADD DUP5 PUSH2 0x21EB JUMP JUMPDEST SWAP5 SWAP4 POP POP POP POP JUMP JUMPDEST PUSH2 0x224D DUP2 PUSH2 0x12C0 JUMP JUMPDEST DUP2 EQ PUSH2 0x2258 JUMPI PUSH1 0x0 DUP1 REVERT JUMPDEST POP JUMP JUMPDEST PUSH1 0x0 DUP2 MLOAD SWAP1 POP PUSH2 0x226A DUP2 PUSH2 0x2244 JUMP JUMPDEST SWAP3 SWAP2 POP POP JUMP JUMPDEST PUSH1 0x0 PUSH1 0x20 DUP3 DUP5 SUB SLT ISZERO PUSH2 0x2286 JUMPI PUSH2 0x2285 PUSH2 0x1069 JUMP JUMPDEST JUMPDEST PUSH1 0x0 PUSH2 0x2294 DUP5 DUP3 DUP6 ADD PUSH2 0x225B JUMP JUMPDEST SWAP2 POP POP SWAP3 SWAP2 POP POP JUMP JUMPDEST PUSH1 0x0 PUSH1 0x40 DUP3 ADD SWAP1 POP PUSH2 0x22B2 PUSH1 0x0 DUP4 ADD DUP6 PUSH2 0x148A JUMP JUMPDEST PUSH2 0x22BF PUSH1 0x20 DUP4 ADD DUP5 PUSH2 0x148A JUMP JUMPDEST SWAP4 SWAP3 POP POP POP JUMP JUMPDEST PUSH1 0x0 DUP2 MLOAD SWAP1 POP PUSH2 0x22D5 DUP2 PUSH2 0x1566 JUMP JUMPDEST SWAP3 SWAP2 POP POP JUMP JUMPDEST PUSH1 0x0 PUSH1 0x20 DUP3 DUP5 SUB SLT ISZERO PUSH2 0x22F1 JUMPI PUSH2 0x22F0 PUSH2 0x1069 JUMP JUMPDEST JUMPDEST PUSH1 0x0 PUSH2 0x22FF DUP5 DUP3 DUP6 ADD PUSH2 0x22C6 JUMP JUMPDEST SWAP2 POP POP SWAP3 SWAP2 POP POP JUMP JUMPDEST PUSH1 0x0 PUSH32 0xFF00000000000000000000000000000000000000000000000000000000000000 DUP3 AND SWAP1 POP SWAP2 SWAP1 POP JUMP JUMPDEST PUSH1 0x0 DUP2 SWAP1 POP SWAP2 SWAP1 POP JUMP JUMPDEST PUSH2 0x234F PUSH2 0x234A DUP3 PUSH2 0x2308 JUMP JUMPDEST PUSH2 0x2334 JUMP JUMPDEST DUP3 MSTORE POP POP JUMP JUMPDEST PUSH1 0x0 DUP2 SWAP1 POP SWAP2 SWAP1 POP JUMP JUMPDEST PUSH2 0x2370 PUSH2 0x236B DUP3 PUSH2 0x1480 JUMP JUMPDEST PUSH2 0x2355 JUMP JUMPDEST DUP3 MSTORE POP POP JUMP JUMPDEST PUSH1 0x0 PUSH2 0x2382 DUP3 DUP8 PUSH2 0x233E JUMP JUMPDEST PUSH1 0x1 DUP3 ADD SWAP2 POP PUSH2 0x2392 DUP3 DUP7 PUSH2 0x233E JUMP JUMPDEST PUSH1 0x1 DUP3 ADD SWAP2 POP PUSH2 0x23A2 DUP3 DUP6 PUSH2 0x235F JUMP JUMPDEST PUSH1 0x20 DUP3 ADD SWAP2 POP PUSH2 0x23B2 DUP3 DUP5 PUSH2 0x235F JUMP JUMPDEST PUSH1 0x20 DUP3 ADD SWAP2 POP DUP2 SWAP1 POP SWAP6 SWAP5 POP POP POP POP POP JUMP JUMPDEST PUSH1 0x0 DUP2 SWAP1 POP SWAP2 SWAP1 POP JUMP JUMPDEST PUSH1 0x0 PUSH2 0x23E9 PUSH2 0x23E4 PUSH2 0x23DF DUP5 PUSH2 0x23C4 JUMP JUMPDEST PUSH2 0x21BF JUMP JUMPDEST PUSH2 0x10D1 JUMP JUMPDEST SWAP1 POP SWAP2 SWAP1 POP JUMP JUMPDEST PUSH2 0x23F9 DUP2 PUSH2 0x23CE JUMP JUMPDEST DUP3 MSTORE POP POP JUMP JUMPDEST PUSH1 0x0 PUSH1 0x40 DUP3 ADD SWAP1 POP PUSH2 0x2414 PUSH1 0x0 DUP4 ADD DUP6 PUSH2 0x1C37 JUMP JUMPDEST PUSH2 0x2421 PUSH1 0x20 DUP4 ADD DUP5 PUSH2 0x23F0 JUMP JUMPDEST SWAP4 SWAP3 POP POP POP JUMP JUMPDEST PUSH1 0x0 PUSH8 0xFFFFFFFFFFFFFFFF DUP3 GT ISZERO PUSH2 0x2443 JUMPI PUSH2 0x2442 PUSH2 0x130C JUMP JUMPDEST JUMPDEST PUSH1 0x20 DUP3 MUL SWAP1 POP PUSH1 0x20 DUP2 ADD SWAP1 POP SWAP2 SWAP1 POP JUMP JUMPDEST PUSH1 0x0 DUP2 MLOAD SWAP1 POP PUSH2 0x2463 DUP2 PUSH2 0x10A5 JUMP JUMPDEST SWAP3 SWAP2 POP POP JUMP JUMPDEST PUSH1 0x0 PUSH2 0x247C PUSH2 0x2477 DUP5 PUSH2 0x2428 JUMP JUMPDEST PUSH2 0x136C JUMP JUMPDEST SWAP1 POP DUP1 DUP4 DUP3 MSTORE PUSH1 0x20 DUP3 ADD SWAP1 POP PUSH1 0x20 DUP5 MUL DUP4 ADD DUP6 DUP2 GT ISZERO PUSH2 0x249F JUMPI PUSH2 0x249E PUSH2 0x1111 JUMP JUMPDEST JUMPDEST DUP4 JUMPDEST DUP2 DUP2 LT ISZERO PUSH2 0x24C8 JUMPI DUP1 PUSH2 0x24B4 DUP9 DUP3 PUSH2 0x2454 JUMP JUMPDEST DUP5 MSTORE PUSH1 0x20 DUP5 ADD SWAP4 POP POP PUSH1 0x20 DUP2 ADD SWAP1 POP PUSH2 0x24A1 JUMP JUMPDEST POP POP POP SWAP4 SWAP3 POP POP POP JUMP JUMPDEST PUSH1 0x0 DUP3 PUSH1 0x1F DUP4 ADD SLT PUSH2 0x24E7 JUMPI PUSH2 0x24E6 PUSH2 0x1107 JUMP JUMPDEST JUMPDEST DUP2 MLOAD PUSH2 0x24F7 DUP5 DUP3 PUSH1 0x20 DUP7 ADD PUSH2 0x2469 JUMP JUMPDEST SWAP2 POP POP SWAP3 SWAP2 POP POP JUMP JUMPDEST PUSH1 0x0 DUP1 PUSH1 0x40 DUP4 DUP6 SUB SLT ISZERO PUSH2 0x2517 JUMPI PUSH2 0x2516 PUSH2 0x1069 JUMP JUMPDEST JUMPDEST PUSH1 0x0 DUP4 ADD MLOAD PUSH8 0xFFFFFFFFFFFFFFFF DUP2 GT ISZERO PUSH2 0x2535 JUMPI PUSH2 0x2534 PUSH2 0x106E JUMP JUMPDEST JUMPDEST PUSH2 0x2541 DUP6 DUP3 DUP7 ADD PUSH2 0x24D2 JUMP JUMPDEST SWAP3 POP POP PUSH1 0x20 PUSH2 0x2552 DUP6 DUP3 DUP7 ADD PUSH2 0x2454 JUMP JUMPDEST SWAP2 POP POP SWAP3 POP SWAP3 SWAP1 POP JUMP JUMPDEST PUSH1 0x0 DUP2 SWAP1 POP SWAP3 SWAP2 POP POP JUMP JUMPDEST PUSH1 0x0 PUSH2 0x2573 DUP4 DUP6 PUSH2 0x255C JUMP JUMPDEST SWAP4 POP PUSH2 0x2580 DUP4 DUP6 DUP5 PUSH2 0x13B8 JUMP JUMPDEST DUP3 DUP5 ADD SWAP1 POP SWAP4 SWAP3 POP POP POP JUMP JUMPDEST PUSH1 0x0 PUSH2 0x2599 DUP3 DUP5 DUP7 PUSH2 0x2567 JUMP JUMPDEST SWAP2 POP DUP2 SWAP1 POP SWAP4 SWAP3 POP POP POP JUMP JUMPDEST PUSH1 0x0 PUSH2 0x140 DUP3 ADD SWAP1 POP PUSH2 0x25BB PUSH1 0x0 DUP4 ADD DUP14 PUSH2 0x148A JUMP JUMPDEST PUSH2 0x25C8 PUSH1 0x20 DUP4 ADD DUP13 PUSH2 0x1C37 JUMP JUMPDEST PUSH2 0x25D5 PUSH1 0x40 DUP4 ADD DUP12 PUSH2 0x148A JUMP JUMPDEST PUSH2 0x25E2 PUSH1 0x60 DUP4 ADD DUP11 PUSH2 0x16FE JUMP JUMPDEST PUSH2 0x25EF PUSH1 0x80 DUP4 ADD DUP10 PUSH2 0x16FE JUMP JUMPDEST PUSH2 0x25FC PUSH1 0xA0 DUP4 ADD DUP9 PUSH2 0x16FE JUMP JUMPDEST PUSH2 0x2609 PUSH1 0xC0 DUP4 ADD DUP8 PUSH2 0x16FE JUMP JUMPDEST PUSH2 0x2616 PUSH1 0xE0 DUP4 ADD DUP7 PUSH2 0x16FE JUMP JUMPDEST PUSH2 0x2624 PUSH2 0x100 DUP4 ADD DUP6 PUSH2 0x16FE JUMP JUMPDEST PUSH2 0x2632 PUSH2 0x120 DUP4 ADD DUP5 PUSH2 0x1C37 JUMP JUMPDEST SWAP12 SWAP11 POP POP POP POP POP POP POP POP POP POP POP JUMP JUMPDEST PUSH1 0x0 PUSH2 0x265C PUSH2 0x2657 PUSH2 0x2652 DUP5 PUSH2 0x1073 JUMP JUMPDEST PUSH2 0x21BF JUMP JUMPDEST PUSH2 0x1073 JUMP JUMPDEST SWAP1 POP SWAP2 SWAP1 POP JUMP JUMPDEST PUSH1 0x0 PUSH2 0x266E DUP3 PUSH2 0x2641 JUMP JUMPDEST SWAP1 POP SWAP2 SWAP1 POP JUMP JUMPDEST PUSH1 0x0 PUSH2 0x2680 DUP3 PUSH2 0x2663 JUMP JUMPDEST SWAP1 POP SWAP2 SWAP1 POP JUMP JUMPDEST PUSH2 0x2690 DUP2 PUSH2 0x2675 JUMP JUMPDEST DUP3 MSTORE POP POP JUMP JUMPDEST PUSH1 0x0 PUSH1 0x60 DUP3 ADD SWAP1 POP PUSH2 0x26AB PUSH1 0x0 DUP4 ADD DUP7 PUSH2 0x148A JUMP JUMPDEST PUSH2 0x26B8 PUSH1 0x20 DUP4 ADD DUP6 PUSH2 0x16FE JUMP JUMPDEST PUSH2 0x26C5 PUSH1 0x40 DUP4 ADD DUP5 PUSH2 0x2687 JUMP JUMPDEST SWAP5 SWAP4 POP POP POP POP JUMP JUMPDEST PUSH1 0x0 PUSH1 0x60 DUP3 ADD SWAP1 POP PUSH2 0x26E2 PUSH1 0x0 DUP4 ADD DUP8 PUSH2 0x148A JUMP JUMPDEST DUP2 DUP2 SUB PUSH1 0x20 DUP4 ADD MSTORE PUSH2 0x26F4 DUP2 DUP7 PUSH2 0x1AF1 JUMP JUMPDEST SWAP1 POP DUP2 DUP2 SUB PUSH1 0x40 DUP4 ADD MSTORE PUSH2 0x2709 DUP2 DUP5 DUP7 PUSH2 0x1CFB JUMP JUMPDEST SWAP1 POP SWAP6 SWAP5 POP POP POP POP POP JUMP INVALID LOG2 PUSH5 0x6970667358 0x22 SLT KECCAK256 DUP5 PUSH27 0x43AD4B05AE3500DE0D0CABAAFEF543B2F11BA2345FDAEF02960455 CODESIZE COINBASE SWAP13 PUSH5 0x736F6C6343 STOP ADDMOD SLT STOP CALLER "
		},
		"gasEstimates": {
			"creation": {
				"codeDepositCost": "2011600",
				"executionCost": "infinite",
				"totalCost": "infinite"
			},
			"external": {
				"NAME()": "infinite",
				"VERSION()": "infinite",
				"domainSeparator()": "infinite",
				"encodeOperationData(address,bytes,uint256,uint256,uint256,uint256,uint256,uint256,address)": "infinite",
				"expectedExecutionFunctionId()": "infinite",
				"getMessageHash(bytes)": "infinite",
				"getMessageHashForSafe(address,bytes)": "infinite",
				"getModules()": "infinite",
				"isValidSignature(bytes,bytes)": "infinite",
				"isValidSignature(bytes32,bytes)": "infinite",
				"onERC1155BatchReceived(address,address,uint256[],uint256[],bytes)": "infinite",
				"onERC1155Received(address,address,uint256,uint256,bytes)": "infinite",
				"onERC721Received(address,address,uint256,bytes)": "infinite",
				"simulate(address,bytes)": "infinite",
				"supportedEntryPoint()": "infinite",
				"supportedExecutionFunctionIds(bytes4)": "2913",
				"supportsInterface(bytes4)": "776",
				"tokensReceived(address,address,address,uint256,bytes,bytes)": "infinite",
				"validateUserOp((address,uint256,bytes,bytes,uint256,uint256,uint256,uint256,uint256,bytes,bytes),bytes32,uint256)": "infinite"
			}
		},
		"methodIdentifiers": {
			"NAME()": "a3f4df7e",
			"VERSION()": "ffa1ad74",
			"domainSeparator()": "f698da25",
			"encodeOperationData(address,bytes,uint256,uint256,uint256,uint256,uint256,uint256,address)": "c9a363cb",
			"expectedExecutionFunctionId()": "0d9e6a36",
			"getMessageHash(bytes)": "0a1028c4",
			"getMessageHashForSafe(address,bytes)": "6ac24784",
			"getModules()": "b2494df3",
			"isValidSignature(bytes,bytes)": "20c13b0b",
			"isValidSignature(bytes32,bytes)": "1626ba7e",
			"onERC1155BatchReceived(address,address,uint256[],uint256[],bytes)": "bc197c81",
			"onERC1155Received(address,address,uint256,uint256,bytes)": "f23a6e61",
			"onERC721Received(address,address,uint256,bytes)": "150b7a02",
			"simulate(address,bytes)": "bd61951d",
			"supportedEntryPoint()": "e6fb794d",
			"supportedExecutionFunctionIds(bytes4)": "4218ef20",
			"supportsInterface(bytes4)": "01ffc9a7",
			"tokensReceived(address,address,address,uint256,bytes,bytes)": "0023de29",
			"validateUserOp((address,uint256,bytes,bytes,uint256,uint256,uint256,uint256,uint256,bytes,bytes),bytes32,uint256)": "3a871cdd"
		}
	},
	"abi": [
		{
			"inputs": [
				{
					"internalType": "address",
					"name": "entryPoint",
					"type": "address"
				}
			],
			"stateMutability": "nonpayable",
			"type": "constructor"
		},
		{
			"inputs": [],
			"name": "NAME",
			"outputs": [
				{
					"internalType": "string",
					"name": "",
					"type": "string"
				}
			],
			"stateMutability": "view",
			"type": "function"
		},
		{
			"inputs": [],
			"name": "VERSION",
			"outputs": [
				{
					"internalType": "string",
					"name": "",
					"type": "string"
				}
			],
			"stateMutability": "view",
			"type": "function"
		},
		{
			"inputs": [],
			"name": "domainSeparator",
			"outputs": [
				{
					"internalType": "bytes32",
					"name": "",
					"type": "bytes32"
				}
			],
			"stateMutability": "view",
			"type": "function"
		},
		{
			"inputs": [
				{
					"internalType": "address",
					"name": "safe",
					"type": "address"
				},
				{
					"internalType": "bytes",
					"name": "callData",
					"type": "bytes"
				},
				{
					"internalType": "uint256",
					"name": "nonce",
					"type": "uint256"
				},
				{
					"internalType": "uint256",
					"name": "verificationGas",
					"type": "uint256"
				},
				{
					"internalType": "uint256",
					"name": "preVerificationGas",
					"type": "uint256"
				},
				{
					"internalType": "uint256",
					"name": "maxFeePerGas",
					"type": "uint256"
				},
				{
					"internalType": "uint256",
					"name": "maxPriorityFeePerGas",
					"type": "uint256"
				},
				{
					"internalType": "uint256",
					"name": "callGas",
					"type": "uint256"
				},
				{
					"internalType": "address",
					"name": "entryPoint",
					"type": "address"
				}
			],
			"name": "encodeOperationData",
			"outputs": [
				{
					"internalType": "bytes",
					"name": "",
					"type": "bytes"
				}
			],
			"stateMutability": "view",
			"type": "function"
		},
		{
			"inputs": [],
			"name": "expectedExecutionFunctionId",
			"outputs": [
				{
					"internalType": "bytes4",
					"name": "",
					"type": "bytes4"
				}
			],
			"stateMutability": "view",
			"type": "function"
		},
		{
			"inputs": [
				{
					"internalType": "bytes",
					"name": "message",
					"type": "bytes"
				}
			],
			"name": "getMessageHash",
			"outputs": [
				{
					"internalType": "bytes32",
					"name": "",
					"type": "bytes32"
				}
			],
			"stateMutability": "view",
			"type": "function"
		},
		{
			"inputs": [
				{
					"internalType": "contract Safe",
					"name": "safe",
					"type": "address"
				},
				{
					"internalType": "bytes",
					"name": "message",
					"type": "bytes"
				}
			],
			"name": "getMessageHashForSafe",
			"outputs": [
				{
					"internalType": "bytes32",
					"name": "",
					"type": "bytes32"
				}
			],
			"stateMutability": "view",
			"type": "function"
		},
		{
			"inputs": [],
			"name": "getModules",
			"outputs": [
				{
					"internalType": "address[]",
					"name": "",
					"type": "address[]"
				}
			],
			"stateMutability": "view",
			"type": "function"
		},
		{
			"inputs": [
				{
					"internalType": "bytes32",
					"name": "_dataHash",
					"type": "bytes32"
				},
				{
					"internalType": "bytes",
					"name": "_signature",
					"type": "bytes"
				}
			],
			"name": "isValidSignature",
			"outputs": [
				{
					"internalType": "bytes4",
					"name": "",
					"type": "bytes4"
				}
			],
			"stateMutability": "view",
			"type": "function"
		},
		{
			"inputs": [
				{
					"internalType": "bytes",
					"name": "_data",
					"type": "bytes"
				},
				{
					"internalType": "bytes",
					"name": "_signature",
					"type": "bytes"
				}
			],
			"name": "isValidSignature",
			"outputs": [
				{
					"internalType": "bytes4",
					"name": "",
					"type": "bytes4"
				}
			],
			"stateMutability": "view",
			"type": "function"
		},
		{
			"inputs": [
				{
					"internalType": "address",
					"name": "",
					"type": "address"
				},
				{
					"internalType": "address",
					"name": "",
					"type": "address"
				},
				{
					"internalType": "uint256[]",
					"name": "",
					"type": "uint256[]"
				},
				{
					"internalType": "uint256[]",
					"name": "",
					"type": "uint256[]"
				},
				{
					"internalType": "bytes",
					"name": "",
					"type": "bytes"
				}
			],
			"name": "onERC1155BatchReceived",
			"outputs": [
				{
					"internalType": "bytes4",
					"name": "",
					"type": "bytes4"
				}
			],
			"stateMutability": "pure",
			"type": "function"
		},
		{
			"inputs": [
				{
					"internalType": "address",
					"name": "",
					"type": "address"
				},
				{
					"internalType": "address",
					"name": "",
					"type": "address"
				},
				{
					"internalType": "uint256",
					"name": "",
					"type": "uint256"
				},
				{
					"internalType": "uint256",
					"name": "",
					"type": "uint256"
				},
				{
					"internalType": "bytes",
					"name": "",
					"type": "bytes"
				}
			],
			"name": "onERC1155Received",
			"outputs": [
				{
					"internalType": "bytes4",
					"name": "",
					"type": "bytes4"
				}
			],
			"stateMutability": "pure",
			"type": "function"
		},
		{
			"inputs": [
				{
					"internalType": "address",
					"name": "",
					"type": "address"
				},
				{
					"internalType": "address",
					"name": "",
					"type": "address"
				},
				{
					"internalType": "uint256",
					"name": "",
					"type": "uint256"
				},
				{
					"internalType": "bytes",
					"name": "",
					"type": "bytes"
				}
			],
			"name": "onERC721Received",
			"outputs": [
				{
					"internalType": "bytes4",
					"name": "",
					"type": "bytes4"
				}
			],
			"stateMutability": "pure",
			"type": "function"
		},
		{
			"inputs": [
				{
					"internalType": "address",
					"name": "targetContract",
					"type": "address"
				},
				{
					"internalType": "bytes",
					"name": "calldataPayload",
					"type": "bytes"
				}
			],
			"name": "simulate",
			"outputs": [
				{
					"internalType": "bytes",
					"name": "response",
					"type": "bytes"
				}
			],
			"stateMutability": "nonpayable",
			"type": "function"
		},
		{
			"inputs": [],
			"name": "supportedEntryPoint",
			"outputs": [
				{
					"internalType": "address",
					"name": "",
					"type": "address"
				}
			],
			"stateMutability": "view",
			"type": "function"
		},
		{
			"inputs": [
				{
					"internalType": "bytes4",
					"name": "",
					"type": "bytes4"
				}
			],
			"name": "supportedExecutionFunctionIds",
			"outputs": [
				{
					"internalType": "bool",
					"name": "",
					"type": "bool"
				}
			],
			"stateMutability": "view",
			"type": "function"
		},
		{
			"inputs": [
				{
					"internalType": "bytes4",
					"name": "interfaceId",
					"type": "bytes4"
				}
			],
			"name": "supportsInterface",
			"outputs": [
				{
					"internalType": "bool",
					"name": "",
					"type": "bool"
				}
			],
			"stateMutability": "view",
			"type": "function"
		},
		{
			"inputs": [
				{
					"internalType": "address",
					"name": "",
					"type": "address"
				},
				{
					"internalType": "address",
					"name": "",
					"type": "address"
				},
				{
					"internalType": "address",
					"name": "",
					"type": "address"
				},
				{
					"internalType": "uint256",
					"name": "",
					"type": "uint256"
				},
				{
					"internalType": "bytes",
					"name": "",
					"type": "bytes"
				},
				{
					"internalType": "bytes",
					"name": "",
					"type": "bytes"
				}
			],
			"name": "tokensReceived",
			"outputs": [],
			"stateMutability": "pure",
			"type": "function"
		},
		{
			"inputs": [
				{
					"components": [
						{
							"internalType": "address",
							"name": "sender",
							"type": "address"
						},
						{
							"internalType": "uint256",
							"name": "nonce",
							"type": "uint256"
						},
						{
							"internalType": "bytes",
							"name": "initCode",
							"type": "bytes"
						},
						{
							"internalType": "bytes",
							"name": "callData",
							"type": "bytes"
						},
						{
							"internalType": "uint256",
							"name": "callGasLimit",
							"type": "uint256"
						},
						{
							"internalType": "uint256",
							"name": "verificationGasLimit",
							"type": "uint256"
						},
						{
							"internalType": "uint256",
							"name": "preVerificationGas",
							"type": "uint256"
						},
						{
							"internalType": "uint256",
							"name": "maxFeePerGas",
							"type": "uint256"
						},
						{
							"internalType": "uint256",
							"name": "maxPriorityFeePerGas",
							"type": "uint256"
						},
						{
							"internalType": "bytes",
							"name": "paymasterAndData",
							"type": "bytes"
						},
						{
							"internalType": "bytes",
							"name": "signature",
							"type": "bytes"
						}
					],
					"internalType": "struct UserOperation",
					"name": "userOp",
					"type": "tuple"
				},
				{
					"internalType": "bytes32",
					"name": "",
					"type": "bytes32"
				},
				{
					"internalType": "uint256",
					"name": "requiredPrefund",
					"type": "uint256"
				}
			],
			"name": "validateUserOp",
			"outputs": [
				{
					"internalType": "uint256",
					"name": "",
					"type": "uint256"
				}
			],
			"stateMutability": "nonpayable",
			"type": "function"
		}
	]
}